:020000041000EA
:1000000000B5324B212058609868022188439860DF
:10001000D860186158612E4B002199600221596106
:100020000121F02299502B49196001219960352056
:1000300000F044F80222904214D00621196600F024
:1000400034F8196E01211966002018661A6600F04E
:100050002CF8196E196E196E052000F02FF8012189
:100060000842F9D1002199601B49196000215960AB
:100070001A491B48016001219960EB211966A021F2
:10008000196600F012F800219960164914480160C1
:100090000121996001BC002800D000471248134993
:1000A000086003C880F30888084703B5996A0420EC
:1000B0000142FBD001200142F8D103BD02B5186610
:1000C0001866FFF7F2FF186E186E02BD00000240BE
:1000D000000000180000070000035F00212200005C
:1000E000F4000018222000A00001001008ED00E03C
:1000F00000000000000000000000000074B24E7A12
:1001000000200420F7010010C3010010C5010010F9
:10011000C1010010C1010010C1010010C101001097
:10012000C1010010C1010010C1010010C701001081
:10013000C1010010C1010010C9010010CB01001065
:10014000CD010010CD010010CD010010CD01001037
:10015000CD010010CD010010CD010010CD01001027
:10016000CD010010CD010010CD010010CD01001017
:10017000CD010010CD010010CD010010CD01001007
:10018000CD010010CD010010CD010010CD010010F7
:10019000CD010010CD010010CD010010CD010010E7
:1001A000CD010010CD010010CD010010CD010010D7
:1001B000CD010010CD010010CD010010CD010010C7
:1001C00000BE00BE00BE00BE00BE00BE00F04BF888
:1001D000103800BEF2EB8871D4060110F806011049
:1001E0003402001090A31AE700202149086006C8D5
:1001F00081F3088810471F48006800282FD10DA4FC
:100200000ECC002902D000F012F8F9E71A491B4A77
:10021000002000E001C19142FCD1194988471949E9
:1002200088471949884700BEFDE701C901C29A42C3
:10023000FBD37047F8060110C0000020B41D002059
:10024000EC2301100000042000000420EC23011026
:1002500000100420001004200000000070470B482C
:1002600004F04AFC0047EFF30580C0B2704700007D
:1002700008ED00E0000000D0B81D0020246E002032
:10028000892A00108D040010AD2B00105756000075
:1002900006005250ABB36053A0F900100600525054
:1002A000861C0302B0F90010060052505422A29D91
:1002B000BCF9001005005250DE65F468EC23011013
:1002C000F8B5C0460448054B10B5834203D0044B33
:1002D000002B00D0984710BDB41D0020B41D002095
:1002E0000000000006480749091A8B10C90FC918F9
:1002F00010B5491003D0044B002B00D0984710BD17
:10030000B41D0020B41D00200000000010B5074CF3
:100310002378002B09D1FFF7D5FF054B002B02D026
:10032000044800E000BF0123237010BDB81E002068
:1003300000000000C8F20010054B10B5002B03D0E0
:100340000449054800E000BFFFF7CCFF10BDC046E0
:1003500000000000BC1E0020C8F20010F8B5DE4608
:100360004E46454657464021E0B5072002F072FF51
:100370004021082002F06EFF40210B2002F06AFFAE
:1003800040210C2002F066FF0022234B10251A703A
:10039000224B20269846224B224F9946224C07F0AA
:1003A00073FB00F00DFCA3691D4227D0A3691E4218
:1003B000F5D13A78002AF2D043461B789A460023BA
:1003C0009B46012A07D0531E9B4643465A46404649
:1003D000591C0EF071FF5B463B704B4600229B5E42
:1003E000534513D0A3691E42FCD15346236007F046
:1003F0004BFB00F0E5FBA3691D42D7D1A3691D4269
:10040000FCD12068C0B201F0B1F8CFE7A3691E4269
:10041000FCD10D232360E5E7E54F00206059002063
:10042000CC6900205C2E002000400340044A137871
:10043000132B03D80349C854013313707047C046C7
:100440005C2E00206059002010B50221102001F020
:10045000D5FA0221112001F0D1FAE121084C49021C
:10046000200001F0BBFBC022236B12021340054A9F
:1004700013601023E26A1340034A136010BDC046A4
:1004800000400340305003402C500340F0B5DE469E
:1004900057464E464546E0B58FB0EB480AAB06AA34
:1004A00005A901F0F5F9002803D1E749E74802F072
:1004B00099FB0A9A0699059801F0AEF9FFF7C4FF77
:1004C0004021072002F0C6FE4021082002F0C2FEB3
:1004D00040210B2002F0BEFE40210C2002F0BAFEAB
:1004E00000F0F4FB00F0E4F9D94805F011FFD94819
:1004F00001F09CFE00F0D0FBD749D84805F0C0FDC4
:10050000D7498246D54805F0BBFDD6498146D34838
:1005100005F0B6FD8046052002F06AFD05F0C6FA3A
:10052000D14905F06CFA041C052002F061FD05F0CC
:10053000BDFACE4905F063FAA023CD4DCD4ADB05C7
:100540001D605A60CC4AC0279A60CC4A00261A61C6
:100550008022F82352025B02069207933F03102287
:1005600006A983460AA80897099605F023FB80236D
:100570005B020A9352465346083201331203DB01F1
:1005800013430AA9102206A80B930C9705F012FB3F
:10059000BB4B201C099305F0B1FA87B2B74200D0DB
:1005A00033E136023C043443012606210920069437
:1005B00001F024FA330009220021A848009605F032
:1005C000D1FD52460021A54806AB05F00FFE4B4673
:1005D0004A469B190E321203DB011343A94A062136
:1005E00013408022D2051343C0220B93A64B120363
:1005F00008200C920D930A9401F000FA33003100A8
:1006000008229648009605F0ADFD31004A46934811
:100610000AAB05F0EBFD8022F823C02600245B0224
:100620005202069207933603102206A90AA80994DB
:10063000089605F0BFFA80235B020A9342464346C0
:10064000073202331203DB0113430AA9102206A862
:100650000B930C9605F0AEFAC8231B0509932000F6
:100660000621013401F0CAF9082CF8D10123002237
:1006700002217A480093073305F074FD584605F0CF
:100680003DFA84B20020844200D0CDE00002240470
:1006900020434246069006AB0221704805F0A6FDB5
:1006A00080226E4B520259681142FCD1774A1A617E
:1006B00080226A4B920259681142FCD1E022FF323B
:1006C0005A618023654CDB02626817001F401A42A2
:1006D000FAD1A0239B00A3616D4B28001F806D4AB7
:1006E0006D4900979846002300F090FB6B4E002365
:1006F000684A00973000684900F088FB2268684B20
:10070000002713432360674B9A46674B994643463D
:10071000A02241461B88D20501339BB2D6630B80D1
:100720004E49096B890603D5F02149008B4235D328
:10073000F022520093424FD00F201A099400A418BF
:10074000554A24011119534A0340121928000097F1
:1007500000F05CFB3C21380004F024FA1D290ED87F
:1007600053461B68502118009B4604F01BFA502189
:100770000390200004F016FA039B834234D0A02398
:1007800000229B00A021EA548022C90552040B6973
:100790001342FCD12B0035001E00B8E701230120D5
:1007A0004249535053581842FCD180234A46802175
:1007B0001B0613601360294AC90253680B42FCD11F
:1007C000A02340219B00936113680B431360802397
:1007D0004A461B0613601360424600230024138020
:1007E0002D492C4A0137B1E74246E0231288FF33F6
:1007F0009A42C4D05021584604F0D4F90123C900CC
:100800005B426B5069184B60B9E7380005F04EF950
:10081000011C201C05F0EDF88721C90505F003F93E
:1008200005F06CF9C6B2BCE6200005F03FF9011CEA
:10083000584605F0DEF88721C90505F0F4F805F003
:100840005DF9C0B222E7C04690530300C8F2001021
:100850005D030010B80B0000FCF2001000002050F7
:1008600030F3001018F30010EC11C04B6716F04C79
:10087000602E0020180020508102000011000100AD
:1008800020010004FFFFFF9F002100448F020000B1
:1008900076460020B0330020844600200831002036
:1008A000070700008046002000112050440400008B
:1008B00010B508F0EDFD08F0B7FC10BD10B5012330
:1008C0004022024907F018FD10BDC046F42D00205B
:1008D0007047C04670B50400064D40222800002134
:1008E00005F062F9290001234022200007F004FDF1
:1008F00070BDC046F42D002070B583780400AE4D65
:10090000002B17D1E378002B38D12379002B59D154
:100910006379002B00D07BE0A379002B00D0A1E00D
:10092000E379002B00D0C7E028000822210005F061
:1009300041F970BDAA789A42E4D0EA789A42E1D0AF
:100940002A799A42DED06A799A42DBD0AA799A4211
:10095000D8D0EA799A42D5D011210278114200D03C
:100960001AE122210A40511E8A4194495B00CB18AA
:10097000985CFFF75BFDE378002BC6D0AA789A421B
:10098000C3D0EA789A42C0D02A799A42BDD06A7917
:100990009A42BAD0AA799A42B7D0EA799A42B4D0A8
:1009A00011212278114200D0ADE022210A40511ECF
:1009B0008A4182495B00CB18985CFFF737FD2379A9
:1009C000002BA5D0AA789A42A2D0EA789A429FD06A
:1009D0002A799A429CD06A799A4299D0AA799A4205
:1009E00096D0EA799A4200D192E7112122781142F9
:1009F00000D097E022210A40511E8A416F495B00D6
:100A0000CB18985CFFF712FD6379002B00D183E7C8
:100A1000AA789A4200D17FE7EA789A4200D17BE730
:100A20002A799A4200D177E76A799A4200D173E72E
:100A3000AA799A4200D16FE7EA799A4200D16BE72E
:100A40001121227811427CD122210A40511E8A4173
:100A50005A495B00CB18985CFFF7E8FCA379002BA0
:100A600000D15DE7AA789A4200D159E7EA789A4224
:100A700000D155E72A799A4200D151E76A799A4222
:100A800000D14DE7AA799A4200D149E7EA799A4222
:100A900000D145E711212278114261D122210A407B
:100AA000511E8A4145495B00CB18985CFFF7BEFC9C
:100AB000E379002B00D137E7AA789A4200D133E7D7
:100AC000EA789A4200D12FE72A799A4200D12BE79F
:100AD0006A799A4200D127E7AA799A4200D123E79E
:100AE000EA799A4200D11FE711212278114245D1BB
:100AF00011310A40511E8A415900304B5B18985CF5
:100B0000FFF794FC10E75A002C4B9B1858782023D1
:100B100002009A431300413B192B00D94DE73F23B4
:100B200018404AE75A00254B9B18587820230200AA
:100B30009A431300413B192B00D963E73F23184028
:100B400060E75A001D4B9B185878202302009A43F7
:100B50001300413B192B00D97EE73F2318407BE768
:100B60005A00164B9B185878202302009A43130012
:100B7000413B192B9AD83F23184097E70F4A5B0057
:100B8000D3185878202302009A431300413B192BB5
:100B9000B6D83F231840B3E75A00084B9B18587843
:100BA000202302009A431300413B192B00D9E0E6B1
:100BB0003F231840DDE6C046EC2D00208CF30010EA
:100BC0007047C046F8B54746CE4680B505000C00D4
:100BD00090461F0007F024FE002807D028002100BF
:100BE00007F02EFE0CBC90469946F8BD074BE60078
:100BF000994636197600B01C3B0042460421484411
:100C000007F0D4FF4B469855E8E7C046882D0020F2
:100C10007047C046F8B505000C00160007F000FE4E
:100C2000012826D002281FD0E300194A1B195B00B7
:100C30009F5C0233D218012F1FD033789C46002FBF
:100C400021D01100002304E00133DBB204319F42C4
:100C500019D908780A006045F6D101365388012B6E
:100C600002D15378062B04D02800210007F0E8FDBC
:100C7000F8BD3000FFF740FEF6E71378002BEDD00B
:100C800033789C46DDE7034805F0BEF8ECE7C04644
:100C9000882D002058F3001070B59625084C2D01C2
:100CA0002A002021200004F07FFF2A0000210548AF
:100CB00004F07AFF23222000034904F07BFF70BD7B
:100CC00084460020B03300208CF400100121F0B5E0
:100CD00057464E464546DE46894601318846023132
:100CE000E0B500238C46082785B0464C464802AA4A
:100CF000494619404D42AA460139D17141465646EE
:100D00006D461940EE714D424D41AA4601256D4296
:100D1000AB46DA446D465646AE714D1EA941594464
:100D20009171614619404D424D41AA4601256D42DF
:100D3000AB46DA446D4656466E714D1EA941594484
:100D40005171390019404D424D41AA4601256D426D
:100D5000AB46DA446D4656462E714D1EA9415944A4
:100D60001171102119404D424D41AA4601256D4295
:100D7000AB46DA446D465646EE704D1EA9415944C5
:100D8000D170202119404D424D41AA4601256D42A6
:100D9000AB46DA446D465646AE704D1EA9415944E5
:100DA0009170402119404D424D41AA4601256D42A6
:100DB000AB46DA446D4656466E704D1EA941594405
:100DC000517059B2CD17AA466D465646C90F2E70BE
:100DD00059441170009D0199256061600399029D3D
:100DE00041608021013305600834083049008B429E
:100DF00000D07DE705B03CBC90469946A246AB4684
:100E0000F0BDC046C8590020C8610020F0B5454675
:100E1000DE4657464E46E0B583B0040001908A4650
:100E20000C983C219846914603F094FE00250091D1
:100E300023002B4937E001202A4F30400138384049
:100E4000294F0822BC4600276044324201D00700E7
:100E500000200422324203D0009A1D2A00DC380010
:100E6000B20702D542460F2A27D0204E2401B446AD
:100E700046466444A45D1E4AE4000E1976680135B6
:100E8000B34616197668B4466658A45806403C40E6
:100E900026435C4620406446274007431E605F604F
:100EA0000833502D0FD05046445D4846465D002E15
:100EB000C1D1012000274042D7E7013518605860B2
:100EC0000833502DEFD1A023002201999B00CA5076
:100ED00003B03CBC90469946A246AB46F0BDC04626
:100EE000C8590020E0E0E0E01F1F1F1F00030020A2
:100EF000C8610020F0B5DE4657464E464546E0B58F
:100F0000454C83B02378002B6AD1444B1C78002CCD
:100F100021D008239B46073B9A46013399469846C1
:100F20000123002500219C463D4F3E483A783E4E25
:100F300003681B2B05D89B00F3589F465B46012591
:100F40009A4301310430A142F2DB002D00D03A7007
:100F50000022364B1A7003B03CBC90469946A2461C
:100F6000AB46F0BD63461A43D2B2434601311A4341
:100F70000125D2B20430A142DADBE6E74B4601316B
:100F800001259A430430A142D2DBDEE7534601310A
:100F900001259A430430A142CADBD6E70823013178
:100FA0001A430125D2B20430A142C1DBCDE70423AC
:100FB00001311A430125D2B20430A142B8DBC4E7A3
:100FC000634601311A430125D2B20430A142AFDB9E
:100FD000BBE70131012500220430A142A8DBB4E7C0
:100FE000134D1449280001AA08F074FD0128AFD15F
:100FF0000A4B1A78142AABD0511C01981970094970
:1010000092005050002222702A70084A1278002A5A
:1010100000D07BE79FE7C04674590020592E00207E
:10102000572E002078590020B4F40010E54F00201E
:1010300054590020B0F4001030B5204C83B0237810
:10104000002B20D1482819D0662817D000211C4B2E
:101050001C4A1B781170022B13D11B4A5368591E6E
:101060004F290ED811684A1E1D2A0AD88A00521824
:101070001201513BD318154A136002E00022134BB2
:101080001A6003B030BD124D1249280001AA08F0C1
:1010900021FD0128DAD10A490A78142A0AD0531C02
:1010A000DBB201980B700849920050500022227068
:1010B0002A70D0E70022034B1A70E2E7745900202F
:1010C000592E0020E54F002078590020804600204E
:1010D00054590020B0F40010002330B583B0040050
:1010E0003049314801AA019308F0F4FCC0B201284C
:1010F00017D02E4B1B78002B13D1412C13D0422C30
:1011000016D12B4C962320681B01010050319942C7
:1011100006D3502103F046FD91231B019C466144F8
:10112000216003B030BD224A1368503B1360F8E7DA
:10113000432C14D11E4C50212568280003F032FDA9
:10114000681C4F2901D02060EBE72800013103F033
:1011500029FD8300181800014F302060E1E7442C7E
:1011600004D1134A1368013B1360DAE7472C0AD114
:101170000F4C5021206803F015FD83001B181B0144
:1011800001332360CDE7732C04D1094B1A68094B56
:101190001A80C6E7752CC4D1064B1A88044B1A6016
:1011A000BFE7C04624F500105459002074590020B0
:1011B00080460020C8690020F0B5C64600B5594BEE
:1011C0001B78012B02D904BC9046F0BD564A127818
:1011D0004A2846D04B28F6D1002B24D0302A22D0E2
:1011E000312A78D0322AEED1504B50211D68280088
:1011F00003F0D8FC2B0084002418503324019C42B7
:10120000E1D2621C01259A4200D81D1B48482A00E1
:101210000021001904F0C8FC46482A0000210019EA
:1012200004F0C2FCCFE7414B50211C68200003F0C2
:10123000B9FC50210600200003F08CFC8642C2D18C
:101240003B4B002598463B4F43461B191D703B19ED
:101250000134502120001D7003F07CFCB042F3D01B
:10126000B1E7002B12D0302A10D0312A22D0322AF6
:10127000A9D19622002112012E4804F095FC962255
:10128000002112012A4804F08FFC9CE79625274B89
:101290002D011C68AC4296DA26482D1B2A0000213D
:1012A000201804F081FC22482A000021201804F0B4
:1012B0007BFC88E71D4B1C68002C00DA83E70134B7
:1012C000220000211B4804F06FFC22000021184876
:1012D00004F06AFC77E7154B50211D68280003F0E5
:1012E00061FC840024182401A54217D02800502155
:1012F00003F058FC0D000E4B0A0018190021984607
:1013000004F052FC0B4F2A003819002104F04CFC69
:101310006419002342463B55135554E7044B054FCF
:101320009846F6E774590020545900208046002062
:10133000B033002084460020F0B557464546DE46CF
:101340004E46E0B57A4D04002B78012783B0002B80
:1013500000D0B2E04D2C29D04C2C20D1754D50211D
:10136000286803F01FFC96248600BA003618D219AC
:101370003601120192192401A24200DA7AE02E60AD
:10138000A6420CDA6C48A41B22000021301804F09D
:101390000BFC6A4822000021301804F005FC03B061
:1013A0003CBC90469946A246AB46F0BD614D5021EB
:1013B000286803F0F7FB96238600BC003618E41972
:1013C00036012401A2191B019A4248DA5A4BB04651
:1013D0009C4601279918594BBA4698189B1999466B
:1013E000D31CE0449E4201DC00239A460123032CD7
:1013F00000DC002357461F43514B9B1A9B46052395
:101400005B459B415B423B4272D04B4647463B4368
:101410000B4303439B076BD196231B019B1A9A46F0
:1014200000234746CA58FA504A46C758D750043393
:101430005345F6D1002C10DB9620631C984663467A
:101440000001041B42460021181904F0ADFB3B4B80
:1014500042460021181904F0A7FB2E609FE7512295
:101460000021384804F0A0FB51220021364804F046
:101470009BFB94E7BC06E41B344B3548A400E41BFB
:1014800034491F182401BF18185D013B5870085DCE
:1014900001394870BB42F7D19642DED02648941BF2
:1014A00022000021801904F07FFB24482200002143
:1014B000801904F079FB2E6071E7274E2749300030
:1014C00001AA08F007FB01280AD00021244B254A75
:1014D0001B781170002B00D161E7234B1F6839E79F
:1014E0001F490A78142A17D100221E4B1A70F4E7FC
:1014F00003009620000160448146087880464746F4
:10150000881A87551878013180464746981A8755BA
:1015100001334945F1D18DE7531CDBB201980B70C3
:1015200011499200505000222A703270D2E7C04612
:101530007459002080460020B033002084460020EB
:101540005F090000C03C0020944F00200F3D0020A8
:10155000A0F6FFFFE34F002054590020B0F4001024
:10156000592E0020E54F002078590020F0B5964D07
:1015700004002B7883B0002B31D1944B1A78002AC9
:1015800013D000221A705B2C00D17FE04D2C43D188
:101590008F4E35684F2D00D884E0503D356096233E
:1015A0001B019D4242D203B0F0BD010020395E29EB
:1015B00022D8884F864E3B78356850212800002B72
:1015C00072D103F0EFFA844B5C55844B1A78844B4C
:1015D0005A554F2900D1D0E001353560DFE77B4B0C
:1015E0001A78002ACDD103001B3BDBB25A2B6FD8EF
:1015F0007C4A9B00D3589F460D2800D1B3E00A28AF
:1016000000D1BDE0082800D1A6E01B2840D101226E
:101610006F4E1A703568C2E7372C3CD16C4E724B56
:1016200035681D8096231B019D42BCD36F4B704AC9
:10163000A0211A60503A5A60912292009A606D4A35
:10164000C905DA60802252040B6D1342FCD1674B4E
:10165000694AA0211A60503A5A60912292009A6019
:10166000644AC905DA60802252040B6D1342FCD132
:1016700051220021614804F097FA5122002160486C
:1016800004F092FA91231B0133608CE701232B7045
:101690004F4E356883E7382CFAD1534B4C4E1D889A
:1016A00035607CE732607EE703F07CFA4F294CD04E
:1016B00000233B7087E76D20FFF71CFC0023514E91
:1016C0002B70514B00223270414E1A70356866E71C
:1016D00000214C4E4D4A3378D4540133DBB2D154FF
:1016E00020229443413C3370192C01D9092BCFD9C6
:1016F00000232B70444BE5E70023424E2B70424BF6
:10170000E0E7404E3378002B3FD13F4B00222A7058
:10171000D8E7FFF7E1FC00233A4E2B703A4BD1E7B4
:10172000FFF74AFD0023374E2B70374BCAE7FFF710
:1017300003FE0023334E2B70334BC3E7FFF77CFCD3
:101740000023304E2B70304BBCE70135280035604C
:10175000013103F027FAABE71D4E3568002D2ED17D
:101760001D4B1D701FE71A4E5021306803F01AFA06
:1017700085002D182D01356011E701233B700EE720
:10178000134E35685035356009E7204C204920005C
:1017900001AA08F09FF91C4B0128B7D11A78142A26
:1017A000B4D0511C019819701A499200505000226F
:1017B000327022702A78002A00D069E782E7064B4F
:1017C000013D35605A55EAE6E54F0020E64F00201E
:1017D00080460020552E002084460020572E0020F1
:1017E000B033002028F50010C869002040000050E8
:1017F000D446002039881F0000340020C03C00205F
:10180000944F002074590020592E00205459002074
:10181000B0F4001078590020F0B583B005000E0038
:10182000140000F0A9F9002801D003B0F0BD154F55
:1018300001223B0001210097053001F0F1F933004E
:101840002A0000940121104801F086FD21002800A3
:10185000714303F0A7F904000C4B0022009302210E
:10186000042001F0DDF9230000220121009405206D
:1018700001F0D6F93B00022200210097062001F07A
:10188000CFF9D2E7006CDC0200800240001BB700F9
:10189000F0B5DE4657464E464546E0B5070083B0F4
:1018A00004209B460091019201F0A2FBFA218900DD
:1018B00003F078F932238246FF3399468600564476
:1018C000B6014C4B4C4AF318072493420BD9012321
:1018D0005B429C465346E144F61A4B46002BF0D13E
:1018E00000205AE0012421003000614303F05AF93E
:1018F000874259D0631E9846012CE8D01D006543ED
:101900003000290003F04EF9874251D0A31E9846BB
:10191000022CE7D02D1B2900300003F043F9874249
:1019200049D0E31E9846032C4BD02D1B29003000D4
:1019300003F038F9874246D0231F9846042C48D03C
:101940002D1B2900300003F02DF9874243D0631F7F
:101950009846052C45D02D1B2900300003F022F9B4
:10196000874240D0062C42D03000E91F03F01AF91C
:1019700006248742B7D10029B5D101230724984610
:1019800073019B1B9B009E19009BF6001E60019B30
:1019900042461C605B4601201A6003B03CBC904686
:1019A0009946A246AB46F0BD0029A3D1A046E7E781
:1019B0000029ABD1E4E70029E2D0E31E9846032CCE
:1019C000B3D102248FE70029DAD0231F9846042CD4
:1019D000B6D1032487E70029D2D0631F9846052C8F
:1019E000B9D104247FE70029CAD0062CBCD1052434
:1019F00079E7C04680E5F9FF804F1200094A83006D
:101A000094464022634410B51C68C0006240C02464
:101A100014408022520113431C60034B9C466044D7
:101A2000416010BD04C00140004001400123D022AC
:101A30008340120693629361094A830094464022D0
:101A400063441968C0004A40C021114080225201FD
:101A500013431960034B9C46052360444360704761
:101A600004C0014000400140EFF3108072B6034A09
:101A70001368002BFCD0BFF35F8F70472C0100D0A0
:101A8000BFF35F8F0022024B1A6080F3108870470B
:101A90002C0100D0F8B5EFF3108772B60E4E336804
:101AA000002BFCD0BFF35F8FCB08C4180725A446DA
:101AB000C45C01230D40AB4018002040234208D1F4
:101AC000624623431370BFF35F8F306087F3108843
:101AD000F8BD100001F086F82C0100D0F8B5CE4614
:101AE00047468C4680B5EFF3108872B6214D2C68BE
:101AF000002CFCD0BFF35F8F9A422CD8D40807216A
:101B0000055D0619012411408C402C421FD007218D
:101B10008946063909E0D408055D06194C460F00D0
:101B20001440A7403C002F4211D001329342F2D220
:101B300001204042BFF35F8F00220E4B1A6088F3F2
:101B4000108800280FDB0CBC90469946F8BD2C434A
:101B500010003470EEE7BFF35F8F00232B6088F333
:101B60001088012040426346002BECD0089801F019
:101B700039F8C0462C0100D0024B18688007C00F0E
:101B80007047C04600C006400021044B044ABFF322
:101B90005F8F02C39342FAD17047C046000100D064
:101BA000800100D0044A1078431CDBB2172B00D907
:101BB000102313707047C0460013002000B5054B7A
:101BC00083B00100009318221F230348FFF786FF0C
:101BD00003B000BD94F60010D02A0020F8B5040030
:101BE00006200D0001F004FA002845D02B4B2C49AB
:101BF000E3185A4253418022D20394465B42134079
:101C0000284A63441360284A136018008A68904386
:101C1000FBD1224B8021E3185A425341234A5B00F7
:101C200049000620995201F0E3F92900C00002F0B2
:101C3000B9FFC30921D14027012226008025626215
:101C4000A36200232C36AD0135432B60062001F042
:101C5000CFF93900800002F0A5FF6023E26A53400B
:101C60006E221A4080235B0133431A60104B2363BA
:101C700010232B600D3BA364F8BD0E4A934203D999
:101C800000230D4F0D4AD8E77F2210400130400855
:101C90009F011A003F180300CFE7C0460080FCBF39
:101CA00000C0004000E0004000F00040CC6900208F
:101CB00001030000FEFF0000C0FF3F00FFFF000027
:101CC00083680B4810B584466144624409011201DF
:101CD0009A18591854684B6801209C4201D802D0C8
:101CE0000020C0B210BD12680B689A42F9D8F7E71D
:101CF000FFFFFF0F0A4B1968EFF3108072B60A68F6
:101D0000002AFCD0BFF35F8F1B68BFF35F8F0022F8
:101D10001A6080F3108840BF002000217047C04641
:101D2000382E0020F8B557464E464546DE46E0B50B
:101D3000434D81468A466A68EFF3108872B613688D
:101D4000002BFCD0BFF35F8F2E68B47B002C3ED0FD
:101D5000670033683F19033FDA195378B373002BD8
:101D600000D1F3730023937053701370A968354A40
:101D70008C464946A21812016244116051465160D6
:101D80003149D36091603268D219937053701370E7
:101D9000737B9B46002B35D022001900B068736816
:101DA00098473268002820D05B4658465B005B4469
:101DB000D719033BB870D118D35C002B00D07B70CF
:101DC0005B460C7073735C451DD0002626E06B6883
:101DD000BFF35F8F1C6088F31088012040423CBC39
:101DE00090469946A246AB46F8BD5B465B005B4415
:101DF000033BD3189C70D119D25D002A00D05A70D1
:101E00005B460B7074734A465346287D00F086FB90
:101E1000061EDAD02100286800F0F8FDEB686A6839
:101E20001B19013B1B78BFF35F8F0021116088F302
:101E300010880020002ED2D118022043CFE7C046E0
:101E400004130020FFFFFF0FF51C0010F8B55746E4
:101E500045464E46DE46E0B599460CAB19780DABCB
:101E60001B78050090469A460768002912D1BE7B70
:101E7000002E45D074003B68A419033C1B195A7806
:101E80003100BA73002A00D1FA7300229A705A7096
:101E90001A7003E00E004C006418033C2C4B002227
:101EA0009C46AB6861449C464346090161440B6013
:101EB0004B464B600A9B8B600B9BCB603B681B19AE
:101EC0009A705A701A707B7B9B46002B2CD0320084
:101ED0005946B8687B6898473A68002817D05B462F
:101EE00058465B005B441419033BA070D118D35CC7
:101EF000002B00D063705B460E707B73B34514D02B
:101F000030003CBC90469946A246AB46F8BD5B46C5
:101F10005B005B44033BD3189E701119125D002ACD
:101F200000D05A705B460B707E7342464B46287D4C
:101F300000F0F4FA041E06D05346002B03D1310002
:101F4000286800F063FD0E9B002BD9D01C70D7E7EA
:101F5000FFFFFF0FF0B5DE464E46574645460023CD
:101F6000E0B58DB00A936B4B8200D3580B90994625
:101F700000239B464B46079300F046FA079C060059
:101F80000F006268EFF3108572B61368002BFCD067
:101F900022000794BFF35F8F2468637B9946002B70
:101FA00067D092685C4B90464B441B019844434673
:101FB0001A685B6810001900801BB94100295FDDB9
:101FC0000B9800F0ABFA00230026984600279A46AB
:101FD000079C6368BFF35F8F5A461A6085F31088C9
:101FE0005346002B08D10028C6D10DB03CBC90460A
:101FF0009946A246AB46F0BD0A9B414618024B46A5
:102000001843D047089009916268EFF3108572B6C3
:102010001368002BFCD00794BFF35F8F0899099ACF
:10202000002A48DB114303D0079B1B69002B5DD1BD
:10203000079B1B68DA7B002A07D051008A181968B1
:102040008C4649466244033A51704A46DA734B461D
:10205000079A013BD168CA5C0132CA545B46079AB1
:1020600013615368BFF35F8F5A461A6085F3108877
:1020700082E700230026984600279A460020A7E71B
:10208000002901D100289BD10021200000F020FC74
:1020900043461E685F689B68079A9A464346DB681A
:1020A0009846D3684B44013B1B780A931B020343B9
:1020B000136100208CE72369002BB9D033003C006A
:1020C0005B1A94411A002300A74219D89F421BD0E3
:1020D00059460491012103914946029141460191DB
:1020E000514607980091FFF7B1FEB7E700F08CF971
:1020F000089A099B06000F0092197B419942E5D985
:1021000001225242D317E3E79642E1D9012252421B
:10211000D317DDE7DC2D0020FFFFFF0F10B5124CB9
:102120006368002B04D00A21104800F089FA10BD22
:1021300023000F4A1021206800F0E8FA032000F085
:1021400057F9032000F05CFA03200A4900F0A0F9D7
:10215000FFF728FD084B9C46032360442375074B7B
:1021600080006060DC60DEE704130020382E002071
:10217000C11C0010551F001040000034DC2D002051
:10218000F0B504000D0006267642F717C64636194C
:102190006F4100B58F4213D810D000F035F93200EE
:1021A0003B00121A8B41002B14DC002B37D0290086
:1021B000200000F05DF904BC9046F0BD8642ECD9E9
:1021C0000026002700F020F932003B00121A8B4154
:1021D000002BEADD30003900FFF7A4FD0028E6DB24
:1021E00000239846BC460F4A0F4F7B6A9C4504D893
:1021F000B96A8E42DBD99C45D9D11168EFF31080C2
:1022000072B60B68002BFCD0BFF35F8F1368BFF36F
:102210005F8F4146196080F3108820BFE5E7002AF0
:10222000C5D0D7E7382E00200040054070B5060025
:1022300000F0EAF8FA2204000D000023300000212B
:10224000920003F0B9FB001969418D4205D802D014
:10225000FFF796FF70BD8442FAD901204042C117B2
:10226000F6E7C046F8B5CE46474680B506000C00F6
:10227000FFF758FD00280CDC2D4B0020596A8C42DA
:1022800003D89B6A0130B34245D30CBC90469946B3
:10229000F8BD20BF274D6A68EFF3108772B6136848
:1022A000002BFCD0BFF35F8F2B68C1B29C465B7BD9
:1022B0008B4235D0FF2303405A0091466246126894
:1022C000994490464A464244033A9278002A1DD0E7
:1022D000EA68000A90464344013B1B78C0B283423F
:1022E00021D06B68BFF35F8F00221A6087F31088DC
:1022F0000F4A0020536A9C42C7D8926A0130B2420A
:10230000C3D2E41A601E8441E0B2BEE72B69984252
:10231000E7D12A61E5E7641A601E8441E0B2B4E7C0
:10232000FF230340D4E7604600F070FBD9E7C046C6
:102330000040054004130020F0B5D6464F464646FF
:10234000C0B5EFF305833F22134018001038EFF3B8
:10235000108C72B6204D2A68002AFCD0BFF35F8F24
:102360000122110081401D4C884661631C49170001
:102370000E788A463100C1400F400A4215D01949F3
:102380008200646A51588C4219D3174BD258434685
:102390009E4353461E70BFF35F8F00232B608CF368
:1023A0001088002A06D0904704E0BFF35F8F2F60AB
:1023B0008CF310881CBC90469946A246F0BD0B4A8F
:1023C0009B00904643441A681A60BFF35F8F002356
:1023D0002B608CF31088EDE7280100D00040054009
:1023E0005A2E00203C2E0020A82A0020D03F054075
:1023F00010B50100024A0348FFF74CFB10BDC04670
:10240000B8F60010562E0020034B596A0A00986A4D
:10241000596A8A42FAD170470040054070B50400FD
:102420000D00124A536A1900966A536A8B42FAD118
:102430003000190024184D41AB4211D80ED02B00AA
:102440000A494A6A9A42FCD307D1084A02E0516A13
:10245000994202D1916AA142F9D370BDA642EED948
:10246000012301246442E5175B42E9E7004005408F
:10247000064A536A9942FCD807D1044B02E05A6AD3
:10248000914202D19A6A8242F9D3704700400540D6
:1024900070B504000D00EFF3108672B61A4A136887
:1024A000002BFCD0BFF35F8F002D1BD0200000F06D
:1024B000C3FD164981420AD0200000F0C5FD01216C
:1024C000200000F09BFD0123A340114A1360114B33
:1024D000A400E550BFF35F8F00220B4B1A6086F318
:1024E000108870BD0B4BA200D5500122A2400A49B2
:1024F00020000B7893430B70044900F0CFFD0021BE
:10250000200000F07BFDE5E7280100D03923001012
:1025100038600540A82A00205A2E0020F0B54F460A
:10252000D6464646C0B50700304C616A0D00A66A23
:10253000616AA942FAD18B4208D805D001201CBC9F
:1025400090469946A246F0BDB242F7D9EFF3108902
:1025500072B6274801680029FCD0BFF35F8F0125C0
:102560002449BD408C460978204C0E002E438846F5
:10257000F1B28A46614650460870391D1E488900EE
:1025800065630A51B9000B50216A0020294219D015
:10259000616A0800A66A616A8142FAD18B4219D841
:1025A00001D1B24216D8C2451DD0104B1F201D626A
:1025B0005D6301230740BB40104A1E381360634629
:1025C00042461A70BFF35F8F0022094B1A6089F3ED
:1025D0001088B4E70020BFF35F8F0022044B1A601D
:1025E00089F31088ABE70120ECE7C04600400540C6
:1025F000280100D05A2E00203C2E002080E200E06E
:1026000010B5EFF3108472B60A490B68002BFCD0AA
:10261000BFF35F8F01238340074A084813620278A3
:102620009A430270BFF35F8F00230B6084F310881E
:1026300010BDC046280100D0004005405A2E0020A1
:10264000024B9C46614489000160704740000034A1
:1026500010B50400FFF7A6FA01002000FFF7F0FF15
:10266000FF232371BFF35F8F10BDC04610B5040078
:10267000FFF798FA01002000FFF7E2FFFF23A38095
:10268000BFF35F8F10BDC04610B504000120FFF7F7
:1026900095FA034BC3189B002360BFF35F8F10BDF7
:1026A0004000003470B505000E001400002924D04D
:1026B000002A24D080686B689847296800280ED0CB
:1026C00063001B197200033B9219CB18033A9E70EA
:1026D00088188A5C002A14D1047030000EE0730060
:1026E0009B196200033B1219CB18033A9C7088189F
:1026F0008A5C002A00D05A700670200070BD080065
:10270000FCE75A7004703000F8E7C04630B58360CB
:102710000023CCB243730133047342608373C473E8
:102720000D000068012C06D9421C0133DBB2137086
:1027300003329C42F9D1FF2129404B005918002354
:1027400040180338437030BDF8B5CE464746060002
:102750000C0080B5002907D04D0003686D18033DBB
:102760005A195778002F04D120000CBC9046994686
:10277000F8BD7900C9190339884643445978894618
:1027800000215970517073683A00210080689847A1
:102790003368002814D042469A18947059195B5D2A
:1027A000002B00D053700F70270049463000FFF710
:1027B000CBFF390002003000FFF774FF0400D3E7BD
:1027C000424641465D19AF709A185B5C002B00D001
:1027D0006B701470E9E7C046F0B557464546DE46D3
:1027E0004E46E0B50D006B0001685B19DF1E04006A
:1027F000C85D83B00192CA1900284CD043001B1851
:10280000033BCB185E78B446002E16D1019E002EF5
:102810003ED0E67B002E04D073009B19CB18033BFF
:102820005D70E57300282FD10023537003B03CBCCA
:1028300090469946A246AB46F0BD72006244033A08
:1028400089184A78904600224A7091465A700100D1
:1028500032002000FFF726FF43468246002B07D0B8
:102860005B0021684344033BCB185A78002A16D1F9
:10287000424651462000FFF715FF2168019BCA1907
:10288000002BC6D10028CFD043001B18033BCB1828
:1028900000219970C8E7019B002BBAD1C4E7500012
:1028A000801803380918487883464846487058709D
:1028B00041462000FFF7F6FE594680462000FFF70C
:1028C00043FF414602002000FFF7ECFE8046CFE7C1
:1028D000F0B54E464546DE465746E0B5467B040019
:1028E00075000068AD19033D83B00191415D421947
:1028F00000294ED04B005B18033BC3185F78BC46E1
:10290000002F18D1019D002D40D0E57B002D04D073
:102910006B005B19C318033B5E70E673002931D16D
:10292000002330005370617303B03CBC904699465D
:10293000A246AB46F0BD7A006244033A8018427862
:1029400093460022427091465A7020003A00FFF7E9
:10295000A9FE5B468046002B07D05B0021685B44E4
:10296000033BCB185A78002A17D15A46414620001B
:10297000FFF798FE019B010020684219002BC4D18B
:102980000029CDD04B005B18033BC3180020987082
:10299000C6E7019B002BB8D1C2E75000801803386E
:1029A00009184878824648464870587059462000B1
:1029B000FFF778FE53468346002B07D05B00216863
:1029C0005344033BCB185A78002A06D15946524645
:1029D0002000FFF767FE8346C7E7500080180338E2
:1029E000091848464F784870587051462000FFF744
:1029F00059FE390081462000FFF7A6FE4946020035
:102A00002000FFF74FFE8246E0E7C04670B50400A5
:102A100000292CD0437B8B422ED0056848004018FB
:102A2000033828188278002A21D053009B18033BD2
:102A3000EA5CEE188A4202D11BE0002A08D053005B
:102A40009B18033BEB185A788A42F6D142785A70A9
:102A500000230122837043702000FFF7BDFE617BDD
:102A600002002000FFF71EFE6073012000E000203E
:102A700070BD43783370EBE701221900FFF7ACFE1D
:102A800060730120F4E7C0462C4B2D4A70B51A60E4
:102A90002C4A2D4B2D491A6010008B689843FBD1AE
:102AA0002B4C2C4B9C4209D2013B1D1BAD08013520
:102AB000AD002D1908CC9847AC42FBD100F03AF993
:102AC000254A214B1A60214A9368DB018033FBD1F0
:102AD0004022224B224C234D9A675A671A67DA66C6
:102AE000AC4208D223682000002B21D00834FFF725
:102AF000BDFDAC42F6D31C4C1C4DA168C022280081
:102B000003F058F8A560FFF73FF800F013FCFFF75B
:102B100005FB174C174B9C4209D2013B1D1BAD080E
:102B20000135AD002D1908CC9847A542FBD170BDE9
:102B30000834FFF78DFDAC42D4D3DCE700E0004061
:102B4000BFCDFBFEFE7F3C0000F0004000C0004017
:102B5000A01D0020B01D0020FFFFFF0100F001407C
:102B6000901D0020A01D002000ED00E000000020CE
:102B7000B01D0020B41D0020094A03001068002881
:102B800005D00849C3188B4207D813607047064820
:102B90000449C31810608B42F7D901204042F5E781
:102BA000842D002000000420246E002000BEFDE7DC
:102BB00010B50C0082B01900002A09D0064B019212
:102BC000009302002300054801F056FF00BEFDE718
:102BD000034B1A00F3E7C046DCF60010ECF60010D9
:102BE0002CFA00100FB400B5084883B003F00CF9BC
:102BF000049B002B07D005A91800019101F05CFF90
:102C0000034803F001F900BEFDE7C0461CF70010C1
:102C10002CF7001010B50148FFF7E4FF30F7001063
:102C2000F0B54546DE4657464E46E0B583B00192C4
:102C30000C9A050088469A4200D974E01A0E934611
:102C40001E023000002359460C9A01F0EDFF374B6D
:102C50006C009C466419A4006444636807008342C6
:102C600000D260602B1FDBB29946012B35D9C023FF
:102C700080229B01234312011A602D4BAD0059594C
:102C80009A46002905D0586901F08CFF01300138BF
:102C9000FDD1019A236852015340E0221A4080235B
:102CA0005B0123431A604A46012A2FD980238022E0
:102CB0009B01234312011A60300000233A00594659
:102CC000676001F0B1FF53465851012003B03CBC8E
:102CD00090469946A246AB46F0BD4346012BC6D16D
:102CE000C02303229B0123431A60023AA3681A42BD
:102CF000FCD0019A236852015A40E0231A408023F5
:102D00005B0123431A600A4AAD009246424621689D
:102D1000514003220A401A60012243469A40A368A8
:102D20001A42FCD0C2E70020D0E7C0460080004035
:102D3000D42A002030B50C2083B000F05FFBFEF7F2
:102D40001BFF00280ED0944B944A1A605A609A6078
:102D5000DA601A615A619A61DA611A62904A5A62BB
:102D600003B030BD8F4CA06700F050FB01228E4BAA
:102D70001A60636C012BFCD103228C4B1A60894AC8
:102D8000936B012BFCD102240121894A8948053328
:102D9000009400F0E1FA0523874A01218748009456
:102DA00000F0DAFA864B5A68FF2A02D880225200D5
:102DB0005A608022784C7D4B21691201804D1A6047
:102DC000002905D0606901F0EDFE01300138FDD128
:102DD000E0217B4B02201A681140802252012A43D5
:102DE00011601968484003210140116004219A686C
:102DF0001142FCD08022802192012A4309011160F6
:102E0000802252005A606F4B23616F4B5968FF2933
:102E100000D85A6003226C48634B01211A600200FB
:102E200093681942FCD0E02513681D4080235B01A4
:102E300003431D6012684A400321114019600221BA
:102E4000614A93681942FCD0802380219B0103438F
:102E50000901196080215D4B4900516063615C4B41
:102E60005A68FF2A00D8596080225A4BE169120142
:102E7000574D1A60002905D0606901F093FE0130BA
:102E80000138FDD1E02252490B681A4080235B01D2
:102E90002B431A60802380229B012B4312011A606E
:102EA00080223E4B52004A60E3614B4B5968FF2938
:102EB00000D85A608022494B216A1201464D1A609F
:102EC000002905D0606901F06DFE01300138FDD1A7
:102ED000E02241490B681A4080235B012B431A60B2
:102EE000802380229B012B4312011A6080238022C1
:102EF0005B004B60294BD2022362394B59689142E7
:102F000000D25A608022374B616A1201344D1A6038
:102F1000002905D0606901F045FE01300138FDD17E
:102F2000E0222F490B681A4080235B012B431A6073
:102F3000802380229B012B4312011A608023DB0235
:102F40004B60174B6362284B5A68FF2A02D88022D5
:102F500052005A608022254BA1691201224D1A604D
:102F6000002905D0606901F01DFE01300138FDD156
:102F7000E0221D490B681A4080235B012B431A6035
:102F8000802380229B012B4312011A6080235B0067
:102F90004B600E4BA361E3E6D42A0020006CDC02F8
:102FA0001BB70000008000403CB0004030B0004043
:102FB000002F68590080024000389C1C00C002406D
:102FC00030800040001BB7003C8000404059730730
:102FD0005480004054B000406080004060B0004029
:102FE0006C8000406CB000404880004048B0004019
:102FF000014B8000C0587047D42A00200123834031
:10300000002904D0034A1360034A13607047034A3F
:103010001360FBE780E200E000E100E080E100E017
:1030200001228240034B1B681340581E8341D8B2D3
:103030007047C04600E100E0024B10309B68800002
:10304000C058704700ED00E070B50D00EFF310863A
:1030500072B60F4A1368002BFCD0BFF35F8F0D4B85
:1030600010309B6884001B590B4A934203D09D4249
:1030700001D0FFF7CFFD074B9B681D51BFF35F8F5A
:10308000BFF35F8F0022024B1A6086F3108870BD79
:10309000240100D000ED00E0CD010010F0B5DE46C7
:1030A00057464E464546E0B50C0083B0EFF3108A14
:1030B00072B65B4A1368002BFCD0BFF35F8F1022FF
:1030C000914681444A46574B96009B689D59564B02
:1030D00098469D4205D0A54216D0544FEB1B2F2B8E
:1030E00014D9504B9B689D51BFF35F8FBFF35F8F27
:1030F00000224B4B1A608AF3108803B03CBC904608
:103100009946A246AB46F0BD1D00EAE70123834085
:103110009B465A46464B1B681A4000925A46454BFE
:103120001A60BFF35F8FFDF79EF80190002803D06F
:10313000814501D0FFF76EFD01232A009A43130059
:103140003D49DB1B5B415943090D93689C4208D103
:103150005BE043001B189B00FB189868A04211D04D
:103160001A00062010560028F3DA009B002B05D029
:103170005A46324B1A602E4B1A60B2E75A462D4B14
:103180001A60AEE706201856002822DB420011180C
:1031900089007C188846A1689960E179D971062177
:1031A00061569971A1797F291FD8A488F91A6405FD
:1031B000241544440919E0240905490D240221433A
:1031C000998012181E4B9200BF181A781870BA71A5
:1031D000CBE7019800280BD1FF30907119489080FF
:1031E000174A107811709871BFE7BD210902E7E70F
:1031F000154A1649D21A083A5002400D01439980E7
:10320000134952080A43DA80AFE70620105613002C
:103210000028BBDA019A002AEAD14546E0E7C04619
:10322000240100D000ED00E0CD0100102C1300209F
:1032300000E100E080E100E0AAAA000080E200E0F6
:10324000582E002000BDFFFF6613002000F0FFFF96
:1032500000F8FFFF032310B50400074A1840944606
:10326000C0009C43FC3383406444226881409A43FD
:1032700013000B43236010BD00E400E0F8B5012506
:1032800004000543FCF7EFFF0300EFF3108672B66E
:1032900021490A68002AFCD0BFF35F8F1F4A200033
:1032A0001F49801A40414143090D1E489B00876811
:1032B00049B2FF58AF421CD00623D3568B421CD0D4
:1032C0001223D3568B4222D01E23D3568B4220D0BA
:1032D0002A23D35603208B4210D0134B1A7819702F
:1032E000A271BFF35F8F00220B4B1A6086F3108828
:1032F000F8BD82680D48D050EFE7002043001B184E
:103300009B00D218FF239371094B9380E5E70120BE
:10331000F4E70220F2E7C046240100D02C1300207D
:10332000AAAA000000ED00E0582E0020CD010010F8
:1033300000BDFFFF054B064A1360064A1360536049
:103340009360D36013615361936170478080808084
:1033500000E400E004E400E0F8B504000C201700ED
:103360001D000E0001F01EFC4101091A8B01591AC3
:10337000C90009188901380001F014FC069A2B04D1
:10338000120313432268002A21DB184AA218514273
:103390004A41802149018C4652420A401449624404
:1033A0000A6014490A60144917008D68AF43FBD1C5
:1033B000C021221D8901114321222660A0600A60DC
:1033C0002268002AFCDAE36008230B60F8BD3F2284
:1033D00021680A40B242D8D1A2681205120D824279
:1033E000D3D1E268002BD0D1F0E7C0460040FDBF4A
:1033F00000E0004000F0004000C000408023024A8E
:103400009B000343D362704700800540AA23064A0D
:103410001B0113602F230549D360054B19605368C6
:10342000002BFCDA7047C0460040024000B0FA00B2
:10343000006002409A4200D2885470477047C046EC
:10344000F8B557464E46DE464546E0B51F000A9B96
:1034500005009B460D9B0E00914692469B0718D196
:103460000B9B0C9A934214D213000B9AB8469B1AEA
:103470004B444C460F0006001D0022004346013419
:1034800039002020B047AC42F7D1AA4635003E00B3
:1034900047460B9B002B38D09A441C00D04653461D
:1034A0001A1B5B46013C185D31003B00A847002C0D
:1034B000F5D10D9B9B0721D543464A469C1A0C9B90
:1034C000A3421BD93A009A464F469146E2194B4611
:1034D000310020200134A8475445F7D343460C99C6
:1034E000DB1B0133B9460022994203D343464A1EEF
:1034F0004A44D21A434690460133984440463CBC65
:1035000090469946A246AB46F8BDD046D1E7C046A4
:10351000F0B54F464646D646C0B584B098460EAB89
:103520001B78129F994694460D9C109B119EBA07DA
:1035300025D4002E69D19C4200D3C2E001223A403A
:1035400092461F2C00D9BBE00C9A551E302201E098
:10355000202C03D001342A55A342F9D85246002A20
:103560000DD0B4420BD21F2C62D80C9A551E3022BB
:1035700001E0202C5CD001342A55B442F9D1FA067E
:1035800035D57A055DD4002C57D10F9B102B00D177
:103590007CE00F9B022B00D18DE030230C9A01249C
:1035A00013704B46002B27D02D230C9A1355013452
:1035B0000C9B624600930397434602960194FFF7E3
:1035C0003FFF04B01CBC90469946A246F0BDBB0626
:1035D00063D4202CECD00C9B1A190134782313707F
:1035E000202CE5D030220C9B1B191A700134202CA2
:1035F000DED04B46002BD7D17B0735D43B07D7D540
:1036000020230C9A13550134D2E7012215003D40C6
:10361000AA463A4220D04A46002A2AD10C323A42DF
:1036200027D19C429DD21F2C00D88DE7202E19D97E
:103630002024FA06BCD57A0503D4A3421BD0A642A7
:1036400019D00F9B102BC2D0022BC9D1202CAFD088
:103650000C9B1B19013440E09C4200D38FE71F2CC8
:1036600000D871E720248AE72B230C9A13550134E4
:103670009EE7013ED5E7631E012C00D185E70F9A36
:10368000102A20D0022A25D01C00ABE7BB060DD49F
:1036900078230C9A01241370A4E7202C00D187E72B
:1036A00058220C9B1B191A70013499E758230C9A65
:1036B0000124137096E70C9A60330124137091E78C
:1036C000202400265BE7023CBA06E9D40C9A1219C2
:1036D0001C0083E70C9A9246534462221A707FE7DB
:1036E00010B5002800D110BD02F03CFBFBE7C0463E
:1036F000F0B5DE46574645464E46E0B59BB09B4684
:10370000249B0A909846259B0B910C92404642467A
:1037100019009A4601F01FFD002800D0E8E00122C0
:10372000404651467F4B524201F010FD002800D028
:10373000DEE00122404651467B4B524201F0F0FC54
:10374000002800D0D4E0002200234046514601F07A
:10375000E7FC002800D0CAE15346C1460993802304
:10376000289ADB001A400E92289A1A4201D10623A9
:1037700026934C46099B234300D0D9E0289B002682
:1037800000271B0500D4AEE100230D93269B1900F2
:103790000D9B994200DCB0E1C81A431E269380239A
:1037A000289ADB001A430023002528920D93279BBB
:1037B0000024AB4200D95C1B0223289A1A400E92C7
:1037C000289A134203D06B426B415B421C400D9B15
:1037D000002B07D04846099932003B0001F037FC26
:1037E00081460991002200234046514601F098FC91
:1037F000002805D08020000684460999614409917B
:10380000289A4A4B0A9E13404A460493269B0B99DA
:103810000293099B03940092019330005B460C9A3B
:10382000884600F0A1F90400002D72D0289B2200E8
:1038300098061F23C017984341465B466530B04742
:103840000D9B671CDA179C18DB0F98466B1E994678
:103850000025544001E0202D13D00AAA94461F23CE
:10386000200063440A2101355E1901F09BF93031D3
:10387000317020000A2101F095F926000400092E7C
:10388000E9D8052306934B460593002304930A3396
:10389000039343463A000A9E0B9F029312AB009398
:1038A00039005B4630000195FFF732FE0E9B0400A5
:1038B000002B2ED00C9B279AC51AAA4229D93C006E
:1038C000814698461700434621005A1920205B463E
:1038D0000135B047AF42F6D84C460C992798631A89
:1038E00001330022984200D30AE10134141910E098
:1038F000289B42460493279B0B990393269B0A9887
:1039000002935346009201935B460C9A00F02CF907
:10391000040020001BB03CBC90469946A246AB4632
:10392000F0BDC046FFFFEF7FFFFFEFFFFFF7FFFF98
:10393000764B099D9C466800400D604401F01EFCDA
:10394000734A744B01F0A1FB734A744B01F076FB90
:103950002B03734A1B0B1A4306000F00714B110017
:1039600048460022099501F060FB6F4A6F4B01F059
:103970008CFB02000B003000390001F05FFB01F00E
:1039800015FC0D9001F0FAFB694A6A4B04000D002A
:1039900001F07BFB0022684B01F050FB01F006FCBC
:1039A000664A0600664B2000290001F06EFB040009
:1039B00030000D000F9601F0E1FB624A624B01F00E
:1039C00064FB02000B002000290001F02EFB020026
:1039D0000B0006000F0001F058FB320004000D0040
:1039E0003B003000390001F029FB002210901191BA
:1039F000564B2000290001F02AFB0022544B01F015
:103A00001DFB02000B002000290001F020FB00221A
:103A1000504B01F013FB02000B002000290001F0C5
:103A200016FB0D00802132003B000400C905002078
:103A300001F0FBFA02000B002000290001F0FEFA61
:103A400002000B001098119901F001FB0022344B89
:103A500001F0F4FA404A0F9B9446634400221B0590
:103A600001F013FB06000F0002000B004846099905
:103A700001F056FB00280AD00D9B3000013B3900B5
:103A80000D930022324B01F0E2FA06000F00C6252A
:103A90000D99330063318D42AD4128996D42043553
:103AA000090500D483E63B4300D16FE6099C4846F4
:103AB00021002A4A2A4B01F041FB002808D00022AD
:103AC00048462100274B01F02BFB002800D05DE683
:103AD000269B002B00D16AE60E9B5A1E9341269A24
:103AE000D31A269363E6002304250D935FE6802313
:103AF0001B065344C146099331E6002326934EE644
:103B00000A008446013A6244121BEEE601FCFFFF04
:103B1000FB799F501344D33FB3C8608B288AC63FBC
:103B20000000F03F0000F83F61436F63A787D23F7A
:103B300071A379094F930A400000E03F1655B5BBC9
:103B4000B16B0240EF39FAFE422EE63F00002C40F6
:103B50000000244000001840FF0300002D431CEB30
:103B6000E2361A3F80842E41F0B54E46DE46574677
:103B70004546E0B597B09946209E219F229B8346FB
:103B8000984607910C923B0032003000390001F05A
:103B9000E2FA002800D0C1E1012230003900CA4B0E
:103BA000524201F0BDFA002800D0E0E001223000CE
:103BB0003900C64B524201F0C9FA002800D0B6E0E5
:103BC000002230003900C24B01F0C0FA002800D0BA
:103BD00098E0002230003900BE4B01F0A1FA002825
:103BE00000D08FE0002200233000390001F098FA65
:103BF000002800D0B0E000230D93249B5B0501D486
:103C00000623984608AB9C461722002430234146E1
:103C1000624404E0013413550139202C01D00929F4
:103C2000F8D888463000390001F0C0FA4346DA007F
:103C3000A94B05009B181A685B680892099301F06C
:103C40009DFA02000B003000390001F0EEF9089AED
:103C5000099B01F01AFA0A900B9101F0CBFA824607
:103C600001F088FA02000B000A980B9901F0DDF9C7
:103C700000229A4B0A900B9101F068FA002800D1BB
:103C8000C0E001239C46E244504601F073FA020072
:103C90000B000898099901F049FA002802D0002386
:103CA0009A4601354346002B69D008AB17269C463F
:103CB00008956644554614E001235B4243440A21BB
:103CC00028009A4600F06EFF013430313719397000
:103CD00028000A2100F066FF092D00D8D5E0D04663
:103CE0000500202CE8D10323249A1340012B00D196
:103CF00000E10EAB9846249B01940393239B02930F
:103D000043461EE0249B58460493239B009601974C
:103D1000039343460C9A029307994B46FFF7E8FC3E
:103D200017B03CBC90469946A246AB46F0BD249BDA
:103D30005B070ED403226A4B2499019203912399C5
:103D40000291009358464B460C9A0799FFF778FB6F
:103D5000E6E70422634BEFE73B003200002000213E
:103D600001F063F9012306000F000D9345E7249B42
:103D70000393239B0293042301935B4BE1E7280009
:103D800001F0FCF902000B003000390001F04DF9A0
:103D9000524B002206000F0001F0C2F90EAB98460C
:103DA00000280AD10022300039004C4B01F0CEF936
:103DB000002802D1EB0700D50135202C32D008AA0B
:103DC00094461723280063440A2101341E1900F089
:103DD000C1FE3031280031700A2100F0BBFE051E03
:103DE000EBD10323249A1340012B00D191E01F2C27
:103DF00000D980E70D9B002B3BD02D234246135565
:103E0000013478E700220A980B99344B01F088F9C5
:103E1000002800D046E75346002B67D101239C467B
:103E2000E2443FE70323249A1340012B00D062E7CA
:103E3000239B002B00D15EE70D9B002B03D1249A1E
:103E40000C33134202D0239B013B2393239B9C42C0
:103E5000CDD208AB9C461722302362441F2C06D8D3
:103E60002399013413558C42C1D0202CF8D1202441
:103E700041E7249B5B0721D4249B1B0700D43AE72E
:103E8000202342461355013435E75746089D202C20
:103E900037D0220030214046002F08D00132B154E3
:103EA000202A43D0D3431B191B18002BF6D10EAB8D
:103EB00098462E234146541C8B547EE72B234246C2
:103EC0001355013417E7C046FFFFEFFFFFFFEF7FF9
:103ED00065CDCD4165CDCDC138F900100000E03F82
:103EE0003CF7001040F700104CF70010DB0700D43F
:103EF000D8E693E7239B002B00D1FAE60EAB984659
:103F00009AE70323249A1340012B00D0F1E60EAB6D
:103F10009846239B002B00D169E78DE7249B0393F0
:103F2000239B029303230193064B0AE70323249A5E
:103F300020241340012B00D0DBE6239B2024002B00
:103F4000DCD1D6E648F70010F0B5DE464E465746BF
:103F50004546E0B59FB01C00289B93460993CF4A85
:103F6000CF4B894608901A60002900D116E2002341
:103F700020789A46002800D118E226001D004C4601
:103F80000AE02A006F1C5B46089D2100A8473D00FF
:103F90000136307800287AD02528F2D110239A46AD
:103FA000083B9946043B9846023B00219C46721C04
:103FB000107816000300203BDBB2102B03D8B94F5A
:103FC0009B00FB589F460300303B092B3CD9002344
:103FD0000A932A2800D171E0002398462E2847D062
:103FE0000300683BDBB2122B1FD8AF4A9B00D358AB
:103FF0009F46012301321943DAE763460132194330
:10400000D6E7434601321943D2E7534601321943FA
:10401000CEE74B4601321943CAE770786C2800D1CD
:10402000BFE280235B00194301360300253BDBB26E
:10403000532BA6D89D4A9B00D3589F4680235B00F4
:10404000707819430136F0E700270300B800C01963
:1040500001364000C018337830381A00303A070073
:10406000092AF3D90A901800002398462E28B7D1C0
:1040700080237078DB0019430300303B721C092B4E
:1040800000D895E12A2800D1A6E11600A8E7A146AC
:10409000AA462C00D34503D801235B425B449A46D1
:1040A0005B46524649460020089DA84720001FB0A5
:1040B0003CBC90469946A246AB46F0BD099B40CB1E
:1040C0000A96002E03DB50780993561C84E72838A3
:1040D000014370420A9009935078561C7CE7782877
:1040E00000D1D4E1582800D168E26F2800D152E312
:1040F000622800D1D8E110230A009A430B92692864
:1041000001D000F0A2FC0A230C934B0500D4D5E1AA
:1041100001230B9A9A430B92692800D1CEE16428BF
:1041200000D1CBE10B9A802311009B0019408A46F5
:104130001A4200D032E3802311005B001940894607
:104140001A4201D000F002FC13005B0600D510E318
:104150000B9B1B0601D400F06EFC099B04CB1204E0
:10416000120C924609935346002B00D064E30B9A3D
:104170001033110099430B91520500D45CE30023E6
:1041800099460B9B06930A9B0593434604930C9B0D
:1041900003930023DEE27078682800D107E28023D1
:1041A0000136194341E780239B007078194301369B
:1041B0003BE7462800D174E10722099B04910733AD
:1041C00093430A9A19000392424602920CC9089836
:1041D0000092019309912A005B462100FFF7C4FC7D
:1041E00001360500D5E6099B1A0008CA9146002B46
:1041F00000D105E1212211438A460EA884461F21E1
:104200006144099500220F27A4460D0002E0202AF0
:104210000CD00B003C001C4020003730092C00D88B
:1042200007380132A85419090F2BF0D86446099DAC
:10423000F0E08B0700D4D1E1099B2A0099466B1C62
:1042400098464B4601CB21009946089F5B46C0B279
:10425000B8470A9B9C466544012B00D890E2B246C1
:104260005E464746A846089D3A00330001372100C4
:104270002020A8474745F7D1B3464B4656463D0058
:104280000993013685E62A006F1C5B46089D2100D4
:104290002520A84701363D007BE6C046493F001077
:1042A000D82D002054F7001098F70010E4F7001004
:1042B000099B04CB994643460992002B00D097E016
:1042C00013789C46002B00D1B3E302235B425A1CB7
:1042D000099B924618000A9F0B92504402E08342C9
:1042E00000D169E15A780133002AF8D1099A0A9776
:1042F0009B1A0B9380230A00DB001A400C92194290
:1043000004D00B9B434501D943460B9302231A006B
:104310000A400D920B4200D184E16046002823D070
:104320000C9B002B00D124E1A844C246099B5746B0
:104330005B1B9846089BB2462A0026005C469B46BB
:1043400009E023003100551CD8474346585D00283A
:1043500000D13FE12A009742F3D1A3463D0034004B
:1043600056460D9B002B69D00B9B0A99A846994293
:1043700064D98C466544ED1A089B47469A46B04678
:1043800026005C463A002300013731002020D04748
:10439000AF42F7D1A346340046464FE0D24B2078D7
:1043A000089300239A46002800D0E6E5002471E631
:1043B000434606000A9F9800C01801324000801949
:1043C0001678030030003038303B0928F3D930002C
:1043D000984616000A9703E6099B023604CB9046DE
:1043E000D2434046D2171040804609933078F7E513
:1043F00013789C46002B00D11AE34346013B66E745
:1044000010220800904311321043824600224905D1
:1044100000D4F2E6534606930823059343460493DB
:10442000102303930023029316AB019200932A00FA
:104430005B4621000898FFF76BF805004B460136F4
:104440000993A6E5202302009A43472A04D180233A
:104450001B01194302239843452801D12023194306
:104460000722099B0491073393430A9A1900039288
:10447000424602920CC908980092019309912A00C1
:104480005B462100FFF734F90136050081E5102372
:104490000C930C230A009A430B924B0500D43BE685
:1044A00036E62023194387E602230C930B910B99E0
:1044B0006428EED10B9B5B0500D529E60B9A80237F
:1044C00011009B0019408A461A4200D0CEE080239A
:1044D00011005B00194089461A4200D0DBE113004D
:1044E0005B0600D51DE10B9B09991B0600D499E2E0
:1044F00008C91BB2D8171A18424092B209919246C5
:10450000DA0F1292002B09D1802310220B99DB00C5
:104510000B4091430B91002B00D012E10B9A6123C9
:10452000920600D541230EA91F228C46DBB26244BD
:104530000A3B57461395A2464D460C9CB1460D9337
:1045400016000AE03033DBB201357355A74200D2C2
:104550001CE1202D00D119E107002100380000F0F6
:1045600021FBCBB20929EDD90D9A94466344DBB205
:10457000EAE7099B5F465B1B98460A9BB3469A464F
:104580002600089C2A003B003100A0474346013525
:10459000585D0028F6D1534634000A935E46BB4668
:1045A000DFE6C0239B00B078194302363DE5C02307
:1045B000B0781943023638E50A979BE60C230A00C7
:1045C0009A4314331A4310230B920C934B0500D4D7
:1045D000A8E59DE5A34634005646C2E60A9A012A9C
:1045E00000D82EE26B1E9F18089BB0469946260005
:1045F0005C462A002300013531002020C847BD4217
:10460000F7D1A34634004646099B3A0001CB21006E
:1046100098467D1C5B46089FC0B2B84743460136AA
:104620000993B6E40B9A0A98531C904200D80AE208
:1046300043199B1A1F00089BB24626005C469B4606
:104640002A002300013531002020D847BD42F7D190
:104650000A9BA34601330B93099B34001B785646F3
:104660009C466046002800D05AE6E7E60722099BF0
:1046700007339343013294469C4462465F68099233
:104680001A68FB1710931193109811990300534067
:104690000E930B007B400F9394460E9A0F9B121AB9
:1046A0008B410E920F93FB0F6246129300233A4305
:1046B0009A463DD00B9A6123920600D541230022F1
:1046C000DBB20EA90A3B8C4691460D9343461F323E
:1046D0006244139515964D460E9E0F9FA146904637
:1046E0000C9C14930FE0C0463D3400103032D2B21F
:1046F000434601355A55BA4500D17CE1202D00D101
:104700007CE106000F00220000233000390000F099
:104710008BFAD2B2092AE9D90D9B9C466244D2B2E7
:10472000E6E7FF23099904C913401A000991E6E658
:104730000B9A1033110099430B915205BAD50023FF
:1047400099460B9B06930A9B0593434604930C9B47
:104750000393129B02934B46019316AB2A000093DE
:1047600021005B460898FEF7D3FE01360500FFF7EF
:1047700010FCFF22099B02CB11408A460993F2E408
:104780004B46454609930136FFF703FC4E46544617
:10479000A946139DD5E708230C9387E60722099BBA
:1047A00007339343013294469C44624609921A6847
:1047B0005B6810009A4613005246134307D10B9AC8
:1047C0001033110099430B91520500D5D7E40B9A91
:1047D0006123920600D541230022DBB20EA90A3BD9
:1047E0008C4691460D9343461F32624457461295BC
:1047F000A2464D460400B14690460C9E13930DE030
:104800003032D2B2434601355A550023BB4200D163
:10481000FDE0202D00D1FDE004000F003200002358
:104820002000390000F000FAD2B2092AE8D90D9B25
:104830009C466244D2B2E5E70B9A6123920600D50A
:104840004123DBB20EA90A3B1F228C460D932300A5
:1048500062445446129517004D469A46B1460C9E46
:1048600008E03033DBB201357B55B4420ED3202D46
:104870000CD004003100200000F094F9CBB20929DB
:10488000EFD90D9A94466344DBB2ECE74E465446AA
:10489000A946129D75E4099B1A0008CAD9171392FC
:1048A0005A184A409146DA0F1292002B08D1802301
:1048B00010220B99DB000B4091430B91002B2BD165
:1048C0000B9A6123920600D541230EAA1F27944616
:1048D000DBB20A3B0D95674455460993A2464C4608
:1048E000B1460C9E08E03033DBB201357B55B44253
:1048F0000ED3202D0CD004003100200000F052F91E
:10490000CBB20929EFD9099A94466344DBB2ECE7AC
:104910004E465446AA460D9D0B9B2A0006930A9BC1
:1049200021000593434604930C9B08980393129B24
:10493000013602935346019316AB00935B46FEF794
:10494000E7FD139B05000993FFF723FB099B04CBAD
:1049500091461293002A08D1802310220B99DB0084
:104960000B4091430B91002B2BD10B9A61239206A4
:1049700000D541230EAA1F279446DBB20A3B0D95B2
:10498000674455460993A2464C46B1460C9E08E042
:104990003033DBB201357B55B4420ED3202D0CD021
:1049A00004003100200000F0FDF8CBB20929EFD956
:1049B000099A94466344DBB2ECE74E465446AA4655
:1049C0000D9D0B9B2A0006930A9B210005934346ED
:1049D00004930C9B0898039300230293534601937E
:1049E00016AB00935B46FEF793FD129B05000993FF
:1049F0000136FFF7CEFAB44200D87FE6149B4C464E
:104A00000E960F97A9469846159E139D99E6A642C5
:104A100000D8FEE6139B4E469846A9465446129D82
:104A2000FFF7AFFB08C9D8171A184240099166E58D
:104A300000230B935EE4099B04CB92460993FFF796
:104A400092FB2F00E0E50B930BE6063B0C932EE563
:104A50000EB4012210B585B007AC08CC010000945B
:104A6000524204480394FFF76FFA05B010BC08BC2B
:104A700003B01847353400100FB410B50C4984B09A
:104A800006AA08CA0C680392002C0BD000920122DF
:104A90000848524202A9A047012004B010BC08BC3B
:104AA00004B01847180001F0AFF90020F5E7C04640
:104AB000D82D0020E136001010B5094A0300146813
:104AC00084B0002C08D0012200910648524203A96C
:104AD000A047012004B010BD01F096F90020F9E7CD
:104AE000D82D0020E136001001480421014B184761
:104AF00080130020194B0010142310B501001888F2
:104B000004331B88984710BD162310B50100188880
:104B100002331B88984710BDF0B5C64600B5002982
:104B200016D014230400012598461827890046183A
:104B30004346216818883B88984701C4431E984122
:104B400040420540A642F3D1280004BC9046F0BD87
:104B50000125F9E7124A936F9B0815D29066D1663A
:104B6000002905D0FFE7FFE7FFE7516F106F70479F
:104B700004B580210906C2175140002800D0C8435F
:104B80000AF07AFB002104BDF0B5146E556E576F24
:104B9000166FFFF7E3FF1466556657671667F0BD9B
:104BA000000000D0114A936F9B0813D21066516623
:104BB000002905D0FFE7FFE7FFE7516F106F70474F
:104BC00004B5002801D00020C0430AF055FB0021A5
:104BD00004BDC046F0B5146E556E576F166FFFF7E3
:104BE000E5FF1466556657671667F0BD000000D0F4
:104BF00094464E4A926F9208624601D230E0C04617
:104C0000F0B54A4EB56F6D08FCD3346E756E776F94
:104C1000366F00F025F89446444A14665566576787
:104C200016676246F0BDC0469446404A926F9208AD
:104C3000624601D258E0C046F0B53C4EB56F6D08F3
:104C4000FCD3346E756E776F366F00F04DF8944676
:104C5000364A14665566576716676246F0BDC04609
:104C6000002B24DB11D000293EDA00B5C9434042B5
:104C700000D1013100F038F8C943404200D1013180
:104C8000DB43524200D1013300BD002AEBD10028A2
:104C900001D1002905D00020C90FC90701D1C043A7
:104CA000410800B50AF0E0FA0022002300BD00B57B
:104CB00000290ADBDB43524200D1013300F014F833
:104CC000C943404200D1013100BDC943404200D137
:104CD0000131DB43524200D1013300F005F8DB43E0
:104CE000524200D1013300BD002923D1002B18D13D
:104CF000002A0CD0BC460D4F38667A66002100238E
:104D0000FFE7FFE7FFE77A6F386F674670470028D5
:104D100001D00748010000B50AF0A6FA00220023DE
:104D200000BD02000B00002000217047000000D0F1
:104D3000FFFFFFFF002B00D0BFE0130C28D1002A9B
:104D4000E7D080B4114F39667A66FFE7FFE730B4E9
:104D5000040C7B6F396F1B0423433B667A66FFE7C5
:104D6000FFE7FFE7C04684B27B6F3D6F1B04234320
:104D70003B667A66FFE7FFE7C04600232C042D0C54
:104D80007A6F386F00196941B0BC7047000000D0DD
:104D9000F0B594460025140E01D112020835140F07
:104DA00001D112010435940F01D192000235D40FC4
:104DB00001D152000135D40B0134254F7C66254CBE
:104DC0003C660E0C93B2FFE7FFE7FFE73C6F6643DC
:104DD000360C7703BE467343DF0B5B04C01AB94140
:104DE000130C7343DB18C91ACE086643360CB6445D
:104DF00093B273431F0F1B01C01AB941130C7343C5
:104E00001F0B1B05C01AB941860D8F023E43664336
:104E1000360C092D24DB520A7243801A7703460AA6
:104E20006643360C16235B1BDE40DF40BF19644629
:104E30006643821B7046043506330100D940A84002
:104E4000C01900D30131A24206D20023F0BD0000F8
:104E5000000000D0FFFFFFFF121B0130F3D3F1E78A
:104E600009277F1BFE406446A2B27243801A00D21B
:104E70000139220C7243130C1204821A99410B005F
:104E80007046043513370100F940A840801900D35B
:104E90000131002B02D1A2420AD2F0BD013000D371
:104EA0000131121BFAD2013BF8D1A24200D2F0BD6F
:104EB000013000D30131121BF7E7F0B51C0C00D014
:104EC00080E00CB400251C0A04D11B02160E3343EB
:104ED000120208351C0B04D11B01160F33431201BB
:104EE00004359C0B04D19B00960F3343920002358E
:104EF000DC0B02D192185B4101351C00971864410C
:104F00000134464F7C66464C3C660E0CFFE7FFE7DB
:104F1000FFE7C0463C6F6643360C7703BE4697B248
:104F20007743C01B00D20139C01B00D201399FB2A8
:104F30007743C91BC91B170C77437E04FF0B801BEB
:104F4000B941CE086643360C0C2D33DBB644120B48
:104F50001F053A431B0B97B27743C01B00D20139A0
:104F60009FB27743C91B170C77433E043F0C801B4D
:104F7000B941860D8F023E43664329277F1BFE40C1
:104F80000C3D7746AF40BF1930BCA2B2ABB2724302
:104F90007343801A9941220C7243130C1204801A35
:104FA000994102000B000137001BA941F9D2781E7C
:104FB0000021F0BD0C277F1BFE4077467F0BAF40E2
:104FC000FF19E0E700245D1C07D0144F7D663966A9
:104FD000FFE7FFE7FFE7FFE73C6F95B29EB265434F
:104FE0006643401BB141150C1E0C654366433604F5
:104FF0002F0C3E432D04401BB141994204D20200C4
:105000000B0020000021F0BD01D19042F7D3801A9F
:10501000994101349942F2D3F6E70000000000D034
:10502000FFFFFFFF48404140484018B41B4B5B68FE
:10503000FC46019308BD04DF8753001018B4174BDA
:105040001B68FC46019308BD00DF91530010944695
:10505000134A926F920809D2624618B40F4BDB686C
:10506000FC46019308BD0CDF495600100C4AF0B510
:10507000146E556E576F166F6246FFF7EEFF084AC3
:105080001466556657671667F0BD18B4034B9B68E6
:10509000FC46019308BD08DFED540010D0690020E4
:1050A000000000D0FFB550404240504059404B40B6
:1050B000594000E0FFB5154F4C00640D03D0BC42D1
:1050C00004D10C0314D80020090D09055C00640DFF
:1050D00003D0BC4204D11C030AD800221B0D1B05BF
:1050E00001264B4009D44B4003D58B4200D182426C
:1050F000FFBD9942FCD19042FFBD0B43DB18034337
:105100001343F5D0C9434918FFBD0000FF07000055
:1051100000B5FFF7CFFF01D0002000BD012000BD8A
:1051200000B5FFF7C7FF804100BDC04600B5FFF7DF
:10513000C1FF01D9002000BD012000BD00B5FFF76F
:10514000B1FF01D9002000BD012000BD00B5FFF76F
:10515000A9FF804100BD012040054A00121804D873
:105160005A00121801D80020704701207047002013
:10517000704700000021002805D17047C117484042
:10518000401AFAD0C90713B5064B1B6898470CBCE8
:10519000441CA2401005120B0349091B09051943C1
:1051A000114310BD342E00201F04000010B54C0028
:1051B000620D8023D218DB00D21A5B057E2A10DD37
:1051C0009E3A13DACC170903490819435242D140D9
:1051D000640001341532202A05DAD04008436043C8
:1051E00010BD002010BD0846604310BDC80FC01898
:1051F000013810BD18B4044B5B6AFC46019308BD2E
:1052000024DFF95700100000D069002018B4044BC7
:10521000DB6DFC46019308BD5CDF05590010000002
:10522000D0690020C94211D300B5490049080022C5
:1052300000F018F8002904D4002240428A411146A7
:1052400000BD80210906002000BD000018B4044BF9
:10525000DB6EFC46019308BD6CDF075800100000B0
:10526000D069002018B4044B9B6FFC46019308BD25
:1052700078DF235800100000D069002018B4044BD8
:10528000DB6FFC46019308BD7CDF915800100000E5
:10529000D0690020132370B51D78012D15D010DDC5
:1052A0002748FFF731FC274C01008022200000F046
:1052B00081FC022D06D02448FFF71EFC234B18600A
:1052C00070BD204C224AA264F5E72E001D4C204AF6
:1052D000A3085B421E401D422FD0330022602020D5
:1052E000B1006118801B0A604A608A60CA600A6166
:1052F0004A618A61CA610A624A628A62CA620A6350
:105300004A638A63CA630A644A648A64CA640A652F
:105310004A658A65CA650A664A668A66CA660A670F
:105320004A674008102803D18A67CA67A264C2E7A7
:105330001E339B00E250A264BDE70023CFE7C046C6
:1053400053440000D06900204C330000342E00206C
:105350005553001007B5604601880A0A0230DF2A5B
:10536000FAD1C9B2820804D30288408800041043ED
:1053700000E00068014A5050039007BDD06900204A
:105380000FB403BC0CBCF0B50124E407634000E09B
:10539000F0B50C0DCF0F661E3605891B640503D3CF
:1053A000C943404200D30131640D03D0661CF60AA4
:1053B00007D0E41B00207F00791C89078912803CFC
:1053C00024031D0DDF0F6E1E36059B1B6D0503D3D9
:1053D000DB43524200D301336D0D03D06E1CF60A3D
:1053E00007D0ED1B00227F007B1C9B079B12803D9A
:1053F0002D032F1B661B58D4A446202E46DA2037D7
:105400001400BC401D00BD40F24033412A438018C7
:105410005941CB0F05D0C943C043002264425041DB
:10542000514162464D0D28D10D0D07D100281FD0E6
:10543000241940414941013A0D0DF9D0640006D3C9
:10544000013000D30131002C01D140084000013A65
:105450000BD4941CE40A04D112051144DB0719444F
:10546000F0BDD907204B194300E0D9070020F0BD5B
:105470000029DDD1002CDBD1F0BD0132C607400888
:10548000CD0728434908002EE1D0D9E73C2E29DA80
:10549000203E40371400BC4000D00124F2401443A9
:1054A0001A00BB401C43D317ACE7AC46202F08DAE8
:1054B00020360400B4400D00B540F840394128437F
:1054C000A5E73C2F0CDA203F40360400B44000D062
:1054D0000124F84004430800B1400C43C117EAE737
:1054E00010001900002494E70000F07FF0B50C0DC7
:1054F000661E3605891BE60A6405640D02D0651C2C
:10550000ED0A04D0002001210905803C2403A446B3
:105510001C0D671E3F05DB1BE70A6405640D02D006
:10552000651CED0A04D0002201231B05803C2403E6
:105530007740644497B484B296B27443070C7E43B8
:10554000150C6F4380B26843361802D30120000463
:105550003F183004350C00197D41844688B29AB258
:1055600050430C0C62431F0C7C438EB27E43921955
:1055700002D301263604A4191604170C3618674105
:1055800001BC81B29AB25143040C62431B0C5C43D0
:1055900080B25843121802D30120000424181004CA
:1055A000130C401863412D185E410020474106BC92
:1055B00088B293B258430C0C6343120C544389B223
:1055C00051435B1802D301210904641819041A0C11
:1055D000091862416D1856410020474118BCF90274
:1055E000720D1143F0026A0D1043ED020A0D03D152
:1055F0006D1940414941013B124E9B1B7600B3425D
:105600000ED26D0007D30130002671416646354346
:1056100001D1400840001B05C918E4072144F0BD32
:105620000BDA013306D1013004D101314F0D01D025
:105630004908F2E7E1070020F0BD013631050020FE
:10564000EBE70000FF030000F0B51C0D671E3F05EF
:10565000DB1BE70A6405640D02D0661CF60A04D061
:10566000002201231B05803C2403D0252D060026A3
:10567000F6432E661E096E66CE0FF619B446490033
:105680004F0D02D07E1CF60A03D000200021403FBF
:105690003F033E1BB600B444013F7F05C91B4908C8
:1056A0002E6F013676089C02950D25437543ED1348
:1056B0007543AD1301356D10F603761B0CB4CC02A7
:1056C000450D2C43A2B2B3B25A43270C7B43350C91
:1056D0006F43A4B26C431B1902D3012424043F1965
:1056E0001C041D0CA4187D4124196D41009A91B22F
:1056F000ACB26143170C7C432B0C5F4392B25A430C
:10570000A41802D301221204BF182204230C521839
:105710007B41019C6C431B19520ED9010A43440181
:10572000A01A81B2B2B2514303145A43360C7343E8
:1057300087B27743D617D21900277E4136049B19CA
:105740001704160C7F185E417316ED18F30100263E
:1057500080337541A90F06D16400690AE8055B0A28
:10576000184309D22FE00422944480337541A90ADA
:10577000A8059B0A184326D3404149412404009AB6
:10578000019B0D005543641B4343E41A95B286B256
:105790007543170C7E43030C5F4392B25A43B6180D
:1057A00002D301221204BF183204330C52197B4178
:1057B00052429C41002C02D4002201305141400849
:1057C000CA071043490802B06246D7079210084B37
:1057D000D218084B9A4203D212058918C919F0BD94
:1057E0000020002A01DC3900F0BD01331905F5E77E
:1057F000FD030000FE070000002200B5203200F08B
:1058000010F8080000BD002200B500F00CF8CA171F
:105810009A4200D100BDD8430121C907414000BDD3
:1058200000220B150AD410B5944600F0A7F8141402
:10583000013400DA0021CB17144C2047002000214E
:1058400070476244343A0CD40C2A07DA04009140C1
:10585000904052422032D440214310BDD843D94316
:1058600010BD203207D40C469440524220321141E0
:10587000D040204310BD0800C917203203D4524243
:105880002032104110BD1800190010BD43580010FF
:105890004A00520D144BD21A13DDFF2A1EDAD2052C
:1058A000CB0FDB071A43C300400F0903490A084323
:1058B00010435B0001D301D0013070474308FBD295
:1058C000704702D0C80FC00770470A031213013295
:1058D000F8D1420F072AF5D1012200E0FF22C80FBC
:1058E00000028018C00570478003000000210A00F4
:1058F000002104E000210A00C11704E00022002377
:1059000006E0C0460022CB1758405940C01A9941C2
:1059100030B5184CA21A002903D1010010D0002084
:10592000203A4C1512D104D2013A001849414C0DCD
:10593000FAD3114CA24204D212058918DB07C91808
:1059400030BDD243520D00200021F5E703D4013AC7
:1059500000184941FBD50B324405C00A4D052843C8
:10596000C90A640003D0002460416141E1E7E0D34B
:105970004408F8E732040000FE0700000A0DCC0FCF
:10598000531E1B05C91A520503D3C943404200D315
:105990000131520D03D0531CDB0A07D0121B00202B
:1059A0006400611C89078912803A1203014BD21AE4
:1059B00070470000FF03000051434343C9188C4661
:1059C000110C83B24B4310B4040C614392B280B209
:1059D000504362431C041B0C001910BC59411304B2
:1059E000120CC018514161447047000048404140CA
:1059F00048400E4B5B6818470C4B1B6818470C4A15
:105A0000936F9B0802D2094BDB681847F0B5146E00
:105A1000556E576F166FFFF7F6FF054A1466556609
:105A200057671667F0BD014B9B681847D06A002086
:105A3000000000D007B548404140484001E0C04662
:105A400007B54200120E03D0FF2A03D1420218D834
:105A5000C00DC0054A00120E03D0FF2A03D14A022E
:105A60000FD8C90DC9050122414005D4414001D5D7
:105A7000814207BD884207BD0143491801D0C04398
:105A8000001807BD00B5FFF7DBFF01D9002000BDFE
:105A9000012000BD01231B064200D21804D84A0091
:105AA000D21801D80020704701207047491A0028F9
:105AB00008D1084670470000C10FC90700D5404211
:105AC000002817D0F44603B40B4B1B68984706BC5C
:105AD00081409E384042803107D20B0607D04900F2
