:020000041000EA
:1000000000B5324B212058609868022188439860DF
:10001000D860186158612E4B002199600221596106
:100020000121F02299502B49196001219960352056
:1000300000F044F80222904214D00621196600F024
:1000400034F8196E01211966002018661A6600F04E
:100050002CF8196E196E196E052000F02FF8012189
:100060000842F9D1002199601B49196000215960AB
:100070001A491B48016001219960EB211966A021F2
:10008000196600F012F800219960164914480160C1
:100090000121996001BC002800D000471248134993
:1000A000086003C880F30888084703B5996A0420EC
:1000B0000142FBD001200142F8D103BD02B5186610
:1000C0001866FFF7F2FF186E186E02BD00000240BE
:1000D000000000180000070000035F00212200005C
:1000E000F4000018222000A00001001008ED00E03C
:1000F00000000000000000000000000074B24E7A12
:1001000000200420F7010010C3010010C5010010F9
:10011000C1010010C1010010C1010010C101001097
:10012000C1010010C1010010C1010010C701001081
:10013000C1010010C1010010C9010010CB01001065
:10014000CD010010CD010010CD010010CD01001037
:10015000CD010010CD010010CD010010CD01001027
:10016000CD010010CD010010CD010010CD01001017
:10017000CD010010CD010010CD010010CD01001007
:10018000CD010010CD010010CD010010CD010010F7
:10019000CD010010CD010010CD010010CD010010E7
:1001A000CD010010CD010010CD010010CD010010D7
:1001B000CD010010CD010010CD010010CD010010C7
:1001C00000BE00BE00BE00BE00BE00BE00F04BF888
:1001D000103800BEF2EB8871688E0010888E001017
:1001E0003402001090A31AE700202149086006C8D5
:1001F00081F3088810471F48006800282FD10DA4FC
:100200000ECC002902D000F012F8F9E71A491B4A77
:10021000002000E001C19142FCD1194988471949E9
:1002200088471949884700BEFDE701C901C29A42C3
:10023000FBD37047888E0010C0000020601400209F
:1002400028A20010000004200000042028A20010B2
:1002500000100420001004200000000070470B482C
:1002600003F08EFE0047EFF30580C0B27047000038
:1002700008ED00E0000000D060140020B848012024
:100280008D200010110700107D210010575600002E
:1002900006005250ABB36053D88C00100600525089
:1002A000861C0302E88C0010060052505422A29DC6
:1002B000F48C001005005250DE65F46828A200108E
:1002C000F8B5C0460448054B10B5834203D0044B33
:1002D000002B00D0984710BD60140020601400204F
:1002E0000000000006480749091A8B10C90FC918F9
:1002F00010B5491003D0044B002B00D0984710BD17
:1003000060140020601400200000000010B5074CAD
:100310002378002B09D1FFF7D5FF054B002B02D026
:10032000044800E000BF0123237010BD60170020C7
:1003300000000000E8860010054B10B5002B03D02C
:100340000449054800E000BFFFF7CCFF10BDC046E0
:100350000000000064170020E8860010F8B50022B5
:100360005746DE464E464546404BE0B51A70404B78
:1003700010259A463F4B404F9946404B404C9B4678
:1003800006F034FC00F0F4FCA3691D4225D0A369FB
:100390009B06F5D43A78002AF2D04B461E78012A03
:1003A00060D0531E98464B4642464846591C08F0BA
:1003B00093F943463B705B4600229B5E2022B3428A
:1003C00035D02022A3691A42FCD1266006F00EFC2B
:1003D00000F0CEFCA3691D42D9D1A3691D42FCD116
:1003E0002368DBB2002BD2D01A00203A5E2A24D830
:1003F0005246244912688B54534601321A609623A0
:100400001B019A42C3D391261F48360132001E4970
:10041000503808F061F98C231B019C461A48502281
:100420000021604404F0E8FC53461E60AFE7A36976
:100430001A42FCD10D232360C3E70D2B0AD153468A
:100440005021186803F0F6FD53468200121812017D
:100450001A60D4E7524612680A2BD0D15346503264
:100460001A60CCE700239846A3E7C046B2480120B3
:100470006435002040380020B44801202C42002080
:100480000040034070380020C0380020114BF0B508
:100490001F009C4619000020202600250E4C19370D
:1004A00000235022013ACE54E5541B18002AF9D1FA
:1004B000013101300134B942F2D16246074B13CB0E
:1004C00013C213CB13C203CB03C2198811809B78CC
:1004D0009370F0BD70380020AC2B0020E88600102F
:1004E00010229446404BF0B557469A463F4B4E4635
:1004F00099463F4B45469C44DE460223E0B5012425
:100500009846674687B038004E46554610380197E2
:100510002100027802AF11404B42FB714346134069
:100520009C460091591E8B4161464F424F4101212B
:1005300049428B46BC46DC44674602A98F7191084C
:100540000F00274079428C46674602A94F71D108B7
:100550000F00274079428C46674602A90F711109A6
:100560000F00274079428C46674602A9CF70510997
:100570000F00274079428C46674602A98F70910987
:100580000F00274079428C466746013BD209DBB217
:1005900002A952420A701A024F701A4319040A4300
:1005A00000991B065944090613431143029A049308
:1005B0002A60039A01306A603360019B7160059183
:1005C000083508369842A3D180239C46094B103049
:1005D000E1440700E244994595D107B0F0BCBB4621
:1005E000B246A946A046F0BD3042002070C50020AA
:1005F000F802002070450120F0B557469246DE46CD
:100600004E4645469846264BE0B59C46254B85B060
:100610009B46534689460193434601000022C84643
:10062000214F0390029320E00F205D462040800080
:10063000405924091D4DA400645966469D00765911
:100640007D5906402540AA463500564635430D6083
:10065000654601339B00ED58FB5828402340034377
:1006600001324B600831502A0ED0434602989B5C01
:10067000814601981B01845C4B445B00002CD3D164
:10068000012000244042D8E7A023002203999B00C8
:10069000CA5005B0F0BCBB46B246A946A046F0BD64
:1006A000304200203813002070C50020F8120020CE
:1006B000044A1378132B03D80349C8540133137029
:1006C0007047C046B448012040380020E12110B5F1
:1006D0000C4C4902200000F0DBFD0221102000F04C
:1006E000E9FC0221112000F0E5FCC022236B12027C
:1006F0001340054A13601023E26A1340034A136053
:1007000010BDC04600400340305003402C50034011
:10071000F0B5DE4657464E464546E0B591B000F08E
:10072000A9F9BF480CAB08AA07A900F007FC0028EC
:1007300003D1BB49BB4801F023FD0C9A08990798E7
:1007400000F0C0FBFFF7C2FFB74804F091FEFFF7CF
:10075000C7FEFFF79BFEB54BB54F9846B54B4246DB
:100760009946390000234846FFF746FFB24B424600
:100770009A46390000235046FFF73EFFAF49B04884
:1007800004F03EFDAF490600AD4804F039FDAE4926
:100790000390AB4804F034FD8346052001F0F6FEDB
:1007A00004F0ACFAA94904F08EFA051C0590052066
:1007B00001F0ECFE04F0A2FAA54904F084FAA023AB
:1007C0004A46DB0504901A60A24A00245A60A0221F
:1007D00092009A60A04A08A91A618022F823520266
:1007E0005B0208920993C0231B030A930CAB1022EF
:1007F00018000B9404F006FB3200731C083212033D
:10080000DB0113430D9308AB102218000CA904F070
:10081000F9FA924B281C0B9304F098FA85B2A54282
:1008200000D0EDE024022D042543012406210920F7
:10083000089500F03FFC2300092200218048009425
:1008400004F042FD320000217D4808AB04F07EFD3B
:10085000039E0621320033190D321203DB011343CC
:100860007F4A082013408022D2051343C0220D93F3
:100870007C4B12030E920F930C9500F01BFC23008F
:10088000210008226E48009404F01EFD2100320071
:100890006B480CAB04F05AFD8022F82352025B0235
:1008A00008920993C02300241B03102208A90CA856
:1008B0000A930B9404F0A6FA5B465A4602330832B8
:1008C0001203DB0113430CA9102208A80D9304F0B6
:1008D00099FA82239B050B9320000621013400F036
:1008E000E9FB082CF8D1012300220221544800938F
:1008F000073304F0E9FC049D281C04F027FA0023C8
:1009000084B29C426DD11B02240423435A46022127
:1009100008934B4808AB04F019FD8021484A49026E
:1009200053680B42FCD180214F4B89021361444A2A
:1009300053680B42FCD1E023FF3353618022404DCA
:10094000D2026B681C0014401342FAD1474B424656
:10095000AB61390000234846FFF74EFE00234246B4
:1009600050463900FFF748FE2A68414B13430122E5
:100970009246C8222B609200A02500239346ED05E5
:100980005022190989B2514352462000141B5A467D
:1009900062434A44EA630F2201339EB213409C46ED
:1009A0005346404218405B464246584352186346FD
:1009B00079184844FFF720FE802252042B69134225
:1009C000FCD1D0225046120651680023090A014288
:1009D000D6D0F0235B009E4201D10026536833003D
:1009E000CEE7200004F08AF9011C281C04F065F908
:1009F0008721C90504F07BF904F0A8F9C3B282E7A6
:100A0000280004F07BF9011C059804F056F98721B1
:100A1000C90504F06CF904F099F9C4B202E7C046C4
:100A2000605B03000C8700105D030010AC2B0020FE
:100A3000703800207C1700209C1A0020408700108E
:100A400000002050788700105C870010EC11C04B2C
:100A50006716F04C1800205011000100200100041E
:100A6000FFFFFF9F002100448F0200007F02000073
:100A70000707000010B507F0C5FD07F08FFC10BD9B
:100A800010B504000100054804F0AEFB012340222C
:100A90002000034906F0F0FC10BDC0469C87001002
:100AA000D441002010B50100014804F09DFB10BDA9
:100AB000C487001070B50400074D280004F094FBB3
:100AC00028004022002104F097F929000123402248
:100AD000200006F0D1FC70BDD441002070B58378B1
:100AE0000400A14D002B17D1E378002B00D0D9E0F2
:100AF0002379002B00D0AAE06379002B00D07BE0A3
:100B0000A379002B52D1E379002B2AD128000822A7
:100B1000210004F077F970BDAA789A42E4D0EA780F
:100B20009A42E1D02A799A42DED06A799A42DBD0A1
:100B3000AA799A42D8D0EA799A42D5D0112102787E
:100B4000114200D106E1894A5B009E5C40235E4071
:100B50003000FFF7ADFD0D2EC6D10A20FFF7A8FD2E
:100B6000C2E7AA789A42D1D0EA789A42CED02A79BE
:100B70009A42CBD06A799A42C8D0AA799A42C5D013
:100B8000EA799A42C2D011212278114200D1D8E0EC
:100B9000764A5B009E5C40235E403000FFF788FD94
:100BA0000D2EB3D10A20FFF783FDAFE7AA789A4252
:100BB000A9D0EA789A42A6D02A799A42A3D06A7933
:100BC0009A42A0D0AA799A429DD0EA799A429AD0C4
:100BD00011212278114200D1AAE0644A5B009E5C98
:100BE00040235E403000FFF763FD0D2E00D08AE702
:100BF0000A20FFF75DFD86E7AA789A4200D17FE7D9
:100C0000EA789A4200D17BE72A799A4200D177E7C5
:100C10006A799A4200D173E7AA799A4200D16FE7C4
:100C2000EA799A4200D16BE711212278114276D0FD
:100C30004E4A5B009E5C40235E403000FFF738FD6B
:100C40000D2E00D05CE70A20FFF732FD58E7AA78A6
:100C50009A4200D150E7EA789A4200D14CE72A79CB
:100C60009A4200D148E76A799A4200D144E7AA79CA
:100C70009A4200D140E7EA799A4200D13CE711213B
:100C80002278114242D0394A5B009E5C40235E408C
:100C90003000FFF70DFD0D2E00D02DE70A20FFF7E5
:100CA00007FD29E7AA789A4200D121E7EA789A421B
:100CB00000D11DE72A799A4200D119E76A799A4250
:100CC00000D115E7AA799A4200D111E7EA799A4250
:100CD00000D10DE71121227811420ED0234A5B008A
:100CE0009E5C40235E403000FFF7E2FC0D2E00D0FA
:100CF000FEE60A20FFF7DCFCFAE622210A40511E3C
:100D00008A411A495B00CB189E5CECE722210A401D
:100D1000511E8A4115495B00CB189E5CB8E7222121
:100D20000A40511E8A4111495B00CB189E5C84E742
:100D300022210A40511E8A410C495B00CB189E5C5F
:100D400050E711310A40511E8A415900074B5B1888
:100D50009E5C22E722210A40511E8A4103495B0022
:100D6000CB189E5CF4E6C046683800201C89001051
:100D70007047C046F0B5CE46474680B585B0050001
:100D80000C0001AE90460A0001001C48994604F090
:100D90002BFA33001A4985C985C32100280006F0C3
:100DA00003FE830007009959164804F01DFA002F2E
:100DB0000AD02100280006F007FE00281AD005B04E
:100DC000C0BCB946B046F0BDE60036190E4F7600FD
:100DD000B01C4B4642460421381806F0ADFF010016
:100DE000B8550A4804F000FA2100280006F0ECFD8E
:100DF0000028E4D1064804F06DF9E0E70C88001003
:100E00001089001040880010F03700206088001022
:100E10007888001010B50A000100024804F0E4F9D7
:100E200010BDC046A4880010F8B506000D001700DC
:100E300006F0BAFD012828D002281FD0EB001E4979
:100E40005B195B00585C0233C91801282AD03B7833
:100E50009C4600282CD00C00002304E00133DBB2B8
:100E60000434984224D9227821006245F6D1013712
:100E70004B88012B02D14B78062B06D0290030007D
:100E800006F0A2FD002809D0F8BD3800FFF726FEC5
:100E90002900300006F098FD0028F5D1074804F03D
:100EA00019F9F1E70B78002BE2D03B789C46D2E7AA
:100EB000034804F00FF9E1E7F037002078880010CC
:100EC000DC880010F0B583B005000E00140000F0BF
:100ED000ADF9002801D003B0F0BD154F01223B0051
:100EE00001210097053001F069F933002A000094D0
:100EF0000121104801F0E6FC21002800714303F0B5
:100F000099F804000C4B002200930221042001F008
:100F100055F92300002201210094052001F04EF92B
:100F20003B00022200210097062001F047F9D2E79A
:100F3000006CDC0200800240001BB700F0B5DE460A
:100F400057464E464546E0B5070085B0042003935A
:100F50000191029201F01AFBFA21890003F06AF86C
:100F600032238246FF33994686005644B6014F4BE2
:100F70004F4AF318072493420ED901235B429C4643
:100F80005346E144F61A4B46002BF0D100205DE0B9
:100F9000002900D186E0062421003000614303F0DF
:100FA00049F8874242D0631E9846012CE5D01D00C7
:100FB00065433000290003F03DF887424DD0A31E61
:100FC0009B46022C4FD02D1B2900300003F032F835
:100FD00087424AD0E31E9B46032C61D02D1B29007B
:100FE000300003F027F8874243D0231F9B46042C90
:100FF00045D02D1B2900300003F01CF8874240D05B
:10100000631F9B46052C42D02D1B2900300003F0A6
:1010100011F887423DD04346052B3FD03000E91FF1
:1010200003F008F88742B3D00624B5E70029BAD107
:10103000A0464246012073019B1B9B009E19019B09
:10104000F6001E60029B1C60039B1A6005B0F0BC9A
:10105000BB46B246A946A046F0BD0029E9D0A31E72
:101060009B46022CAFD1012496E70029B2D1D84685
:10107000DFE70029FBD0231F9B46042CB9D10324B2
:101080008AE70029F3D0631F9B46052CBCD10424BA
:1010900082E70029EBD04346052BBFD105247BE72F
:1010A000022479E701239846C3E7C04680E5F9FFAB
:1010B000804F1200094A830094464022634410B5D1
:1010C0001C68C0006240C0241440802252011343B7
:1010D0001C60034B9C466044416010BD04C001404D
:1010E000004001400123D0228340120693629361A5
:1010F000094A83009446402263441968C0004A406C
:10110000C02111408022520113431960034B9C46B9
:10111000052360444360704704C001400040014023
:10112000EFF3108072B6034A1368002BFCD0BFF3B4
:101130005F8F70472C0100D0BFF35F8F0022024BFE
:101140001A6080F3108870472C0100D070B5EFF35F
:10115000108C72B60D4D2B68002BFCD0BFF35F8F47
:101160000724CB08C618C05C01230C40A3401C0018
:101170000440034207D103433370BFF35F8F2C60F9
:101180008CF3108870BD100000F0FAFF2C0100D025
:10119000F8B54746CE46884680B5EFF3108C72B658
:1011A000214D2C68002CFCD0BFF35F8F9A422CD8C5
:1011B000D4080727055D061901241740BC402C42BE
:1011C0001FD007210127894609E0D408055D0619CB
:1011D0004C4639001440A1400C00294211D0013284
:1011E0009342F2D201204042BFF35F8F00220E4BA8
:1011F0001A608CF3108800280FDBC0BCB946B046DB
:10120000F8BD2C4310003470EEE7BFF35F8F00236E
:101210002B608CF31088012040424346002BECD019
:10122000089800F0ADFFC0462C0100D0024B1868B2
:101230008007C00F7047C04600C006400021044B25
:10124000044ABFF35F8F02C39342FAD17047C0468E
:10125000000100D0800100D0044A1078431CDBB2AA
:10126000172B00D9102313707047C0467813002045
:1012700000B5054B83B00100009318221F230348DB
:10128000FFF786FF03B000BD1C8A00103835002030
:10129000F8B5040006200D0001F078F9002844D0CC
:1012A0002A4B2B49E21853425A418023DB039C46C8
:1012B0009205284B62441A60274B1A6010008B6815
:1012C0009843FBD1214B8021E3185A425341234AD2
:1012D0005B0049009952062001F058F92900C0002E
:1012E00002F0A8FEC30921D1402701212600802554
:1012F0006162A36200232C36AD0135432B600620CA
:1013000001F044F93900800002F094FE6023E26AA3
:1013100053406E221A4080235B0133431A60104B06
:10132000236310232B600D3BA364F8BD0D4A934249
:1013300003D900230C4F0D49D8E77F22104001301C
:1013400040089F0119003F180300CFE70080FCBF51
:1013500000C0004000E0004000F000402C420020AF
:1013600001030000FEFF0000C0FF3F00FFFF000080
:1013700083680B4810B58446614462440901120138
:101380009A18591854684B6801209C4201D802D021
:101390000020C0B210BD12680B689A42F9D8F7E776
:1013A000FFFFFF0F0A4B1968EFF3108072B60A684F
:1013B000002AFCD0BFF35F8F1B68BFF35F8F002252
:1013C0001A6080F3108840BF002000217047C0469B
:1013D00018420020F8B557464E464546DE46E0B571
:1013E00099460CAB1C780DAB1B78060090469A46CC
:1013F0000768002C11D1BC7B002C42D065003B68F3
:101400002D19033D59194B78BB73002B00D1FB7389
:1014100000238B704B700B7004E065003B682D1946
:10142000033D5919B2682A4B94464246E3181B0102
:1014300063441A604A465A600A9A9A600B9ADA60C4
:1014400000238B704B700B707B7B9B46002B2BD04B
:1014500022005946B8687B6898473A68002816D039
:101460005B4658465B005B445519033BA870D11896
:10147000D35C002B00D06B705B460C707B73A34574
:1014800013D0F0BCBB46B246A946A046F8BD5B46A9
:101490005B005B44033BD3189C705119525D002ADA
:1014A00000D05A705B460B707C7342464B46307DD1
:1014B00000F058FB051E06D05346002B03D1210037
:1014C000306800F0A5FD0E9B002BDAD01D70D8E728
:1014D000FFFFFF0FF0B5DE464E4657464546002358
:1014E000E0B58DB00A936B4B8200D3580B909946B0
:1014F00000239B464B46079300F0D4FA079C060056
:101500000F006268EFF3108572B61368002BFCD0F1
:1015100022000794BFF35F8F2468637B9946002BFA
:1015200067D092685C4B90464B441B0198444346FD
:101530001A685B6810001900801BB94100295FDD43
:101540000B9800F00FFB00230026984600279A46D0
:10155000079C6368BFF35F8F5A461A6085F3108853
:101560005346002B08D10028C6D10DB0F0BCBB46B5
:10157000B246A946A046F0BD0A9B414618024B461A
:101580001843D047089009916268EFF3108572B64E
:101590001368002BFCD00794BFF35F8F0899099A5A
:1015A000002A48DB114303D0079B1B69002B5DD148
:1015B000079B1B68D97B002907D04A00521819687D
:1015C0008C4649466244033A51704A46DA734B46A8
:1015D000079A013BD168CA5C0132CA545B46079A3C
:1015E00013615368BFF35F8F5A461A6085F3108802
:1015F00082E700230026984600279A460020A7E7A6
:10160000002901D100289BD10021200000F082FC9C
:1016100043461E685F689B68079A9A464346DB68A4
:101620009846D3684B44013B1B780A931B02034343
:10163000136100208CE72369002BB9D033003C00F4
:101640005B1A94411A002300A74219D89F421BD06D
:101650005946049101210391494602914146019165
:10166000514607980091FFF7B5FEB7E700F01AFA68
:10167000089A099B06000F0092197B419942E5D90F
:1016800001225242D317E3E79642E1D901225242A6
:10169000D317DDE758380020FFFFFF0FF8B5574696
:1016A0004E464546DE46E0B5404D81468A466A686C
:1016B000EFF3108872B61368002BFCD0BFF35F8F76
:1016C0002E68B47B002C39D0670033683F19033F84
:1016D000DB195A78B273002A00D1F273A968344A30
:1016E0008C464946A218120162441160514651606D
:1016F000304991600021D160997059701970737BE5
:101700009B46002B35D022001900B06873689847BB
:101710003268002820D05B4658465B005B44D719EE
:10172000033BB870D118D35C002B00D07B705B46B4
:101730000C7073735C451DD0002626E06B68BFF308
:101740005F8F1C6088F3108801204042F0BCBB46CC
:10175000B246A946A046F8BD5B465B005B44033B2E
:10176000D3189C70D119D25D002A00D05A705B4604
:101770000B7074734A465346287D00F0F3F9061E39
:10178000DAD02100286800F043FCEB681B19013B0C
:1017900019786B68BFF35F8F00221A6088F3108896
:1017A0000020002ED2D108022043CFE77C13002076
:1017B000FFFFFF0FA513001010B5124C6368002B3C
:1017C00004D00A21104800F05BFA10BD23000F4A34
:1017D0001021206800F0BCFA032000F057F9032024
:1017E00000F030FA03200A4900F076F9FFF734FDE3
:1017F000084B9C46032360442375074B80006060C0
:10180000DC60DEE77C13002018420020711300101A
:10181000D51400104000003458380020F0B5040002
:101820000D0006267642F717C64636196F4100B5F9
:101830008F4213D810D000F035F932003B00121A55
:101840008B41002B14DC002B37D02900200000F046
:1018500033F980BCB846F0BD8642ECD9002600279B
:1018600000F020F932003B00121A8B41002BEADD18
:1018700030003900FFF712FF0028E6DB002398460E
:10188000BC460F4A0F4F7B6A9C4504D8B96A8E420A
:10189000DBD99C45D9D11168EFF3108072B60B6883
:1018A000002BFCD0BFF35F8F1368BFF35F8F4146FF
:1018B000196080F3108820BFE5E7002AC5D0D7E77C
:1018C000184200200040054070B5060000F0EAF81C
:1018D000FA2204000D00002330000021920003F0E2
:1018E000CFF9001969418D4205D802D0FFF796FF64
:1018F00070BD8442FAD901204042C117F6E7C046C4
:10190000F8B5CE46474680B506000C00FFF7C6FE88
:1019100000280CDC2D4B0020596A8C4203D89B6AAE
:101920000130B34245D3C0BCB946B046F8BD20BF74
:10193000274D6A68EFF3108772B61368002BFCD04E
:10194000BFF35F8F2B68C1B29C465B7B8B4235D067
:10195000FF2303405A00914662461268994490461C
:101960004A464244033A9278002A1DD0EA68000AA7
:1019700090464344013B1B78C0B2834221D06B6840
:10198000BFF35F8F00221A6087F310880F4A002090
:10199000536A9C42C7D8926A0130B242C3D2E01A5D
:1019A000421E9041C0B2BEE72B699842E7D12A613E
:1019B000E5E7601A431E9841C0B2B4E7FF23034035
:1019C000D4E7604600F024FBD9E7C046004005405C
:1019D0007C130020F0B5D6464F464646C0B5EFF31F
:1019E00005833F22134018001038EFF3108C72B6B5
:1019F000204D2A68002AFCD0BFF35F8F012211001E
:101A000081401D4C884661631C4917000E788A4648
:101A10003100C1400F400A4209D1BFF35F8F2F60F0
:101A20008CF31088E0BCBA46B146A846F0BD144914
:101A30008200646A51588C420FD3124BD2584346ED
:101A40009E4353461E70BFF35F8F00232B608CF3C1
:101A50001088002AE6D09047E4E70B4A9B009046A6
:101A600043441A681A60BFF35F8F00232B608CF326
:101A70001088D7E7280100D000400540B548012074
:101A80001C42002010350020D03F054010B5010059
:101A9000024A0348FFF75AFB10BDC046388A0010BF
:101AA000B1480120034B596A0A00986A596A8A4270
:101AB000FAD1704700400540064A536A9942FCD863
:101AC00007D1044B02E05A6A914202D19A6A8242DB
:101AD000F9D370470040054070B504000D00EFF3E6
:101AE000108672B61A4A1368002BFCD0BFF35F8FC2
:101AF000002D1BD0200000F06DFD164981420AD058
:101B0000200000F06FFD0121200000F045FD0123C1
:101B1000A340114A1360114BA400E550BFF35F8F3F
:101B200000220B4B1A6086F3108870BD0B4BA2008D
:101B3000D5500122A2400A4920000B7893430B7034
:101B4000044900F079FD0021200000F025FDE5E7C3
:101B5000280100D0D519001038600540103500204C
:101B6000B5480120F0B54F46D6464646C0B50700F9
:101B70002F4C616A0D00A66A616AA942FAD18B42B4
:101B800008D805D00120E0BCBA46B146A846F0BD51
:101B9000B242F7D9EFF3108A72B6264801680029DD
:101BA000FCD0BFF35F8F0125BD402349204C884600
:101BB000097889462943C9B28C4641466046087077
:101BC000391D1E48890065630A51B9000B50216A0E
:101BD0000020294219D0616A0800A66A616A814220
:101BE000FAD18B4219D801D1B24216D8CC451DD0BA
:101BF0000F4B1F201D625D6301230740BB40104A4D
:101C00001E38136043464A461A70BFF35F8F0022A6
:101C1000084B1A608AF31088B5E70020BFF35F8F86
:101C20000022044B1A608AF31088ACE70120ECE72D
:101C300000400540280100D0B54801201C4200208A
:101C400080E200E0EFF3108C72B60A490B68002BBB
:101C5000FCD0BFF35F8F01238340074A074813621C
:101C600002789A430270BFF35F8F00230B608CF3FE
:101C700010887047280100D000400540B548012079
:101C8000024B9C466144890001607047400000346B
:101C900010B50400FFF7E0FA01002000FFF7F0FFA5
:101CA000FF232371BFF35F8F10BDC04610B5040042
:101CB000FFF7D2FA01002000FFF7E2FFFF23A38025
:101CC000BFF35F8F10BDC04610B504000120FFF7C1
:101CD000CFFA044B9C46604480002060BFF35F8FC6
:101CE00010BDC0464000003470B505001400160059
:101CF000002915D00C00002A12D080686B68984724
:101D0000296800280ED073009B196200033B12194A
:101D1000CB18033A9C7088188A5C002A15D106708B
:101D2000200070BD63001B197200033B9219CB1891
:101D3000033A9E7088188A5C002A02D1047034002D
:101D4000EEE75A7004703400EAE75A700670E7E76D
:101D500030B583600023CCB2437301330473426017
:101D60008373C4730D000068012C06D9421C013333
:101D7000DBB2137003329C42F9D1FF2129404B00A2
:101D80005918002340180338437030BDF8B5CE46CB
:101D9000474606000C0080B5002907D04D000368B7
:101DA0006D18033D5A195778002F04D12000C0BC8C
:101DB000B946B046F8BD7900C9190339884643448D
:101DC0005978894600215970517073683A00210092
:101DD000806898473368002814D042469A18947057
:101DE00059195B5D002B00D053700F7027004946D6
:101DF0003000FFF7CBFF390002003000FFF774FF1F
:101E00000400D3E7424641465D19AF709A185B5C07
:101E1000002B00D06B701470E9E7C046F0B5574650
:101E20004546DE464E46E0B50D006B0001685B1985
:101E3000DF1E0400C85D83B00192CA1900284CD08F
:101E400043001B18033BCB185E78B446002E16D116
:101E5000019E002E3ED0E67B002E04D073009B191D
:101E6000CB18033B5D70E57300282FD1002353701E
:101E700003B0F0BCBB46B246A946A046F0BD720016
:101E80006244033A89184A78904600224A70914683
:101E90005A70010032002000FFF726FF43468246B9
:101EA000002B07D05B0021684344033BCB185A78D2
:101EB000002A16D1424651462000FFF715FF21683F
:101EC000019BCA19002BC6D10028CFD043001B1894
:101ED000033BCB1800219970C8E7019B002BBAD1B6
:101EE000C4E75000801803380918487883464846EC
:101EF0004870587041462000FFF7F6FE594680466C
:101F00002000FFF743FF414602002000FFF7ECFEF0
:101F10008046CFE7F0B557464546DE464E46E0B52B
:101F200083B00191457B04006B0000685B19DF1EE4
:101F3000C15DC21900294ED04B005B18033BC3188A
:101F40005E78B446002E18D1019E002E40D0E67B6C
:101F5000002E04D073009B19C318033B5D70E5731A
:101F6000002931D1002328005370617303B0F0BC05
:101F7000BB46B246A946A046F0BD72006244033A91
:101F80008018427890460022427091465A70200094
:101F90003200FFF7A9FE43468246002B07D05B00C4
:101FA00021684344033BCB185A78002A17D1424694
:101FB00051462000FFF798FE019B01002068C219DE
:101FC000002BC4D10029CDD04B005B18033BC318B4
:101FD00000209870C6E7019B002BB8D1C2E75000E3
:101FE0008018033809184878834648464870587066
:101FF00041462000FFF778FE594680462000FFF753
:10200000C5FE414602002000FFF76EFE8046CEE787
:1020100070B5040000292CD0437B8B422ED005687C
:1020200048004018033828188278002A21D053002D
:102030009B18033BEA5CEE188A4202D11BE0002A9F
:1020400008D053009B18033BEB185A788A42F6D10C
:1020500042785A7000230122837043702000FFF7FA
:10206000DDFE617B02002000FFF73EFE6073012071
:1020700000E0002070BD43783370EBE701221900C7
:10208000FFF7CCFE60730120F4E7C0462C4B2D4ACD
:1020900070B51A602C4A2D4B2D491A6014008B68BC
:1020A0009C43FBD12B4D2C4EB54208D2013E761BF2
:1020B000B60808CD984723000134B342F9D100F0A7
:1020C00007F9264A214B1A60214A9368DB43DB015A
:1020D000DD09002BF9D14022214B224C224E9A6778
:1020E0005A671A67DA66B44208D223682000002BC8
:1020F00020D00834FFF7DAFDB442F6D31B4E1C4C57
:10210000C022A168300002F07DFEA660FFF796F8BD
:1021100000F0C6FBFFF750FB164C174EB44208D236
:10212000013E361BB60808CC98472B0001359E426D
:10213000F9D170BD0834FFF7ABFDB442D5D3DDE76C
:1021400000E00040BFCDFBFEFE7F3C0000F0004001
:1021500000C000404C1400205C140020FFFFFF0171
:1021600000F001403C1400204C140020000000202E
:1021700000ED00E05C1400206014002000BEFDE7CC
:102180000FB400B5084883B002F0A4FF049B002BF5
:1021900007D005A91800019101F0D2FE034802F012
:1021A00099FF00BEFDE7C0465C8A001074880010ED
:1021B00010B50148FFF7E4FF6C8A0010F0B5454602
:1021C000DE4657464E46E0B583B001920C9A0500B4
:1021D00088469A4200D974E01A0E93461E023000D7
:1021E000002359460C9A01F067FF374B6C009C4660
:1021F0006419A400644463680700834200D26060ED
:102200002B1FDBB29946012B35D9C02380229B01BD
:10221000234312011A602D4BAD0059599A460029EB
:1022200005D0586901F006FF01300138FDD1019A4F
:10223000236852015340E0221A4080235B0123436C
:102240001A604A46012A2FD9802380229B0123430A
:1022500012011A60300000233A005946676001F00D
:102260002BFF53465851012003B0F0BCBB46B24689
:10227000A946A046F0BD4346012BC6D1C023032288
:102280009B0123431A60023AA3681A42FCD0019AC8
:10229000236852015A40E0231A4080235B01234304
:1022A0001A600A4AAD009246424621685140032214
:1022B0000A401A60012243469A40A3681A42FCD0A1
:1022C000C2E70020D0E7C046008000403C35002037
:1022D00030B50C2083B000F04DFBFEF7A7FF0028BF
:1022E0000ED0944B944A1A605A609A60DA601A6170
:1022F0005A619A61DA611A62904A5A6203B030BD3B
:102300008F4CA06700F03EFB01228E4B1A60636C7D
:10231000012BFCD103228C4B1A60894A936B012B51
:10232000FCD102240121894A89480533009400F038
:10233000C9FA0523874A01218748009400F0C2FAB0
:10234000864B5A68FF2A02D8802252005A608022A7
:10235000784C7D4B21691201804D1A60002905D00F
:10236000606901F067FE01300138FDD1E0217B4B4F
:1023700002201A681140802252012A431160196814
:10238000484003210140116004219A681142FCD0A9
:102390008022802192012A4309011160802252008B
:1023A0005A606F4B23616F4B5968FF2900D85A6000
:1023B0000321644A6B4B116002399A681142FCD0C8
:1023C000E0201A681040802252011A4310601868F9
:1023D0004840032101400220116062498A6810428E
:1023E000FCD0802292011343802212011A608022C5
:1023F0005D4B52004A6063615C4B5968FF2900D80D
:102400005A6080225A4BE1691201584D1A60002926
:1024100005D0606901F00EFE01300138FDD1E022E7
:1024200052490B681A4080235B012B431A608023BA
:1024300080229B012B4312011A6080223E4B5200E6
:102440004A60E3614B4B5968FF2900D85A608022EB
:10245000494B216A1201474D1A60002905D0606975
:1024600001F0E8FD01300138FDD1E02241490B685F
:102470001A4080235B012B431A60802380229B013A
:102480002B4312011A60802380225B004B602A4B91
:10249000D2022362394B5968914200D25A6080229D
:1024A000374B616A1201354D1A60002905D0606909
:1024B00001F0C0FD01300138FDD1E0222F490B6849
:1024C0001A4080235B012B431A60802380229B01EA
:1024D0002B4312011A608023DB024B60174B6362AF
:1024E000284B5A68FF2A02D8802252005A60802264
:1024F000254BA1691201234D1A60002905D060699E
:1025000001F098FD01300138FDD1E0221D490B6832
:102510001A4080235B012B431A60802380229B0199
:102520002B4312011A6080235B004B600E4BA361AA
:10253000E4E6C0463C350020006CDC021BB700001E
:10254000008000403CB0004030B00040002F68598F
:102550000080024000389C1C00C0024030800040D7
:10256000001BB7003C800040405973075480004076
:1025700054B000406080004060B000406C8000407B
:102580006CB000404880004048B00040014B8000E3
:10259000C05870473C35002001238340002904D0F7
:1025A000034A1360034A13607047034A1360FBE752
:1025B00080E200E000E100E080E100E001228240F2
:1025C000034B1B6813405A1E9341D8B27047C04654
:1025D00000E100E0024B10309B688000C05870475B
:1025E00000ED00E070B50D00EFF3108672B60F4AF3
:1025F0001368002BFCD0BFF35F8F0D4B10309B682E
:1026000084001B590B4A934203D09D4201D0FFF72F
:10261000CFFD074B9B681D51BFF35F8FBFF35F8FEB
:102620000022024B1A6086F3108870BD240100D08E
:1026300000ED00E0CD010010F0B5DE4657464E46F5
:102640004546E0B50C0083B0EFF3108A72B65A4AE3
:102650001368002BFCD0BFF35F8F1022914681449A
:102660004A46564B96009B689D59554B98469D424D
:1026700005D0A54216D0534FEB1B2F2B14D94F4B2F
:102680009B689D51BFF35F8FBFF35F8F00224A4B62
:102690001A608AF3108803B0F0BCBB46B246A94664
:1026A000A046F0BD1D00EAE7012383409B465A4641
:1026B000454B1B681A4000925A46444B1A60BFF3C0
:1026C0005F8FFDF7D0FD0190002803D0814501D038
:1026D000FFF76EFD01232A009A4393689C4208D1BC
:1026E0005FE04B005B189B00FB189968A14211D07A
:1026F0001A00062151560029F3DA009B002B05D061
:102700005A46334B1A60304B1A60B8E75A462F4B83
:102710001A60B4E706215956002921DB4A005018F7
:1027200080003C188046A0689860E079D871062047
:1027300020569871002824DBA488F81A6405241513
:1027400044440019E0240005400D240220439880F1
:102750005218204B9200BF181A781970BA71CCE742
:102760000199002910D1FF3191711B4991801949BC
:102770000A789A71194ADB1B5B415A43120D0A70A1
:10278000BBE7BD200002E2E7154A1649D21A083A13
:102790005002400D01439980134952080A43DA80E0
:1027A000ABE70621515613000029B7DA019A002A37
:1027B000EAD14546DBE7C046240100D000ED00E049
:1027C000CD010010A413002000E100E080E100E052
:1027D00080E200E0B348012000BDFFFFAAAA00008C
:1027E000DE13002000F0FFFF00F8FFFFF8B5012521
:1027F00004000543FDF737FDEFF3108C72B6214A54
:102800001368002BFCD0BFF35F8F1F4E2100B76809
:102810001E4A1F4B891A49414B431B0D59B2830075
:10282000F858A8421CD00623D3568B421CD0122342
:10283000D3568B4222D01E23D3568B4220D02A233C
:10284000D35603208B4210D0124B1A781970A27104
:10285000BFF35F8F00220B4B1A608CF31088F8BD1A
:10286000B2680D48D050EFE7002043001B189B00D2
:10287000D218FF239371094B9380E5E70120F4E719
:102880000220F2E7240100D000ED00E0A4130020B4
:10289000AAAA0000B3480120CD01001000BDFFFF2F
:1028A000054B064A1360064A136053609360D36079
:1028B00013615361936170478080808000E400E081
:1028C00004E400E0F0B5C646040000B50C209046D4
:1028D0001F000E0001F0AEFB4101091A8D01691ABB
:1028E000C90009188901404601F0A4FB069B3F047A
:1028F0001A0323681743002B22DB1A4B1A4DE218E8
:1029000053425A4180235B019C461203174B624499
:102910001A60174B1A601100AB689943FBD1C022B3
:10292000231D92011A4321232660A06013602368AF
:10293000002BFCDA0823E760136080BCB846F0BDCA
:102940003F2322681340B342D7D1A3681B051B0D58
:102950008342D2D1EE22E368D2021340BB42CCD1F3
:10296000EBE7C0460040FDBF00C0004000E0004073
:1029700000F000408023024A9B000343D36270476B
:1029800000800540AA23064A1B0113602F23054936
:10299000D360054B19605368002BFCDA7047C046C2
:1029A0000040024000B0FA00006002407047C0469C
:1029B000F8B557464E464546DE46E0B599460A9B71
:1029C00007009A460D9B8846934615000B9E9B0771
:1029D00010D10C9B9E420DD29D1B14000E005D4435
:1029E00022004B46013431002020B847A542F7D1E0
:1029F000B0460B9E002E27D0444675195346AA1B9D
:102A0000013E985D21004B46B847002EF6D12300C9
:102A10002C0098460D9B9B070FD55B46E51A0C9B37
:102A2000AB420AD94646984622004B463100202048
:102A30000135B8470134A845F6D82000F0BCBB46A4
:102A4000B246A946A046F8BD2C00E3E7F0B54F46D4
:102A50004646D646C0B584B098460EAB1B78129F4A
:102A6000994694460D9C109B119EBA0725D4002EC2
:102A70004BD19C4200D3BFE001223A4092461F2C2A
:102A800000D9B8E00C9A551E302201E0202C03D06A
:102A900001342A55A342F9D85246002A0DD0A64245
:102AA0000BD9202C44D00C9A551E302201E0202C4A
:102AB0003ED001342A55B442F9D1FA064DD57A05F3
:102AC0003FD4002C39D10F9B102B00D179E00F9B04
:102AD000022B00D18AE030230C9A012413704B465C
:102AE000002B3FD02D230C9A135501340C9B6246CA
:102AF00000930397434602960194FFF759FF04B0F1
:102B0000E0BCBA46B146A846F0BD012215003D40E2
:102B1000AA463A422FD04A46002A02D10C323A4203
:102B200000D0013E9C42BAD21F2CABD9202E27D90F
:102B30002024FA06DAD57A0503D4A3422DD0A64282
:102B40002BD00F9B102B32D0022B20D0202CCDD09D
:102B500030220C9B1B191A700134202CC6D04B4616
:102B6000002BBFD17B070DD43B07BFD520230C9A88
:102B700013550134BAE79C429FD21F2C00D881E73D
:102B800020249AE72B230C9A13550134AEE7202C0E
:102B9000ACD00C9B1B1901343AE0631E012C92D07F
:102BA0000F9A102A2AD0022A2FD01C00D0E7BB0689
:102BB0000ED4202C9AD00C9B1A1901347823137050
:102BC000C4E7BB060DD478230C9A01241370BFE729
:102BD000202C00D18AE758220C9B1B191A70013453
:102BE000B4E758230C9A01241370B1E70C9A6033B0
:102BF00001241370ACE7202400265EE7023CBA06ED
:102C0000E9D40C9A12191C00D8E70C9A9246534446
:102C100062221A709AE7C04610B5002800D110BD94
:102C200002F008FAFBE7C0460B0010B5002802D0FE
:102C300049681B68984710BDF0B5DE4657464E46BA
:102C40004546E0B59BB09B46249B89469846259B0C
:102C50000B900C924046424619009A4601F0BBFC8C
:102C6000002800D0D8E0012240465146774B52421E
:102C700001F0ACFC002800D0CEE0012240465146D5
:102C8000734B524201F08CFC002800D0C4E00022BB
:102C900000234046514601F083FC002800D0B9E1F2
:102CA000424653460A9209938023289ADB001A4031
:102CB0000E92289A1A4201D1062326930A9A099B5A
:102CC0001600134300D0C7E0289B002500261B05F3
:102CD00000D49BE100230D93269A0D9B9A4200DCC1
:102CE0009FE1D01A431E26938023289ADB001A43C3
:102CF0000023002728920D93279B0024BB4200D974
:102D0000DC1B0223289A1A400E92289A134203D001
:102D10007B427B415B421C400D9B002B07D00A98F5
:102D200009992A00330001F0DAFB0A900991002288
:102D300000234046514601F033FC002805D0802096
:102D400000068446099961440991289A414B0B9DDC
:102D500013400493269B0A9A0293099B03940092C2
:102D6000019349465B4628000C9A00F08BF9040059
:102D7000002F62D0289B220098061F23C01798437B
:102D8000631C984649465B466530A8470D9B002565
:102D9000DA179C18DB0F9A465440013F01E0202DC2
:102DA00013D00AAA94461F23200063440A21013548
:102DB0005E1901F03FF93031317020000A2101F035
:102DC00039F926000400092EE9D8052306930023CB
:102DD00004930A330393534605970B9F029312AB58
:102DE000009342465B46494638000195FFF72EFEA8
:102DF0000E9B0400002B20D00C9BC51A279BAB42D6
:102E00001BD91E0022005B46494620200135B847E9
:102E10000134AE42F6D810E0289B42460493279B2B
:102E200049460393269B0B980293534600920193C5
:102E30005B460C9A00F026F9040020001BB0F0BCA1
:102E4000BB46B246A946A046F0BDC046FFFFEF7F95
:102E5000FFFFEFFFFFF7FFFF734B099F9C467800D2
:102E6000400D604401F0CAFB704A714B01F055FB04
:102E7000704A714B01F02AFB3B03704A1B0B1A434B
:102E800004000D00300011006D4B002201F015FB15
:102E90006C4A6D4B01F041FB02000B002000290041
:102EA00001F014FB01F0C2FB0D9001F0A7FB674A93
:102EB000674B04000D0001F030FB0022654B01F070
:102EC00005FB01F0B3FB644A0600644B20002900B7
:102ED00001F023FB040030000D000F9601F08EFB83
:102EE0005F4A604B01F019FB02000B002000290033
:102EF00001F0E3FA02000B0006000F0001F00DFBE9
:102F0000320004000D003B003000390001F0DEFA11
:102F1000002210901191544B2000290001F0DFFA9B
:102F20000022524B01F0D2FA02000B0020002900CF
:102F300001F0D5FA00224E4B01F0C8FA02000B0056
:102F40002000290001F0CBFA0D008021040032009E
:102F50003B000020C90501F0B0FA02000B00200080
:102F6000290001F0B3FA02000B001098119901F04A
:102F7000B6FA0022314B01F0A9FA3E4B0F9C9C4659
:102F800064440022230501F0C8FA05000E00020087
:102F90000B000A98099901F003FB00280AD00D9B49
:102FA0002800013B31000D930022304B01F097FACD
:102FB00005000E00C6270D992B0063318F42BF41DB
:102FC00028997F420437090500D495E6334300D1A0
:102FD00082E6099C284A2100284B0A9801F0EEFA63
:102FE000002808D000222100254B0A9801F0D8FAC9
:102FF000002800D070E6269B002B00D17CE60E9BBB
:103000005A1E9341269AD31A269375E60023042765
:103010000D9371E643460A9380231B06534409939C
:1030200042E6002326935FE601FCFFFFFB799F50F9
:103030001344D33FB3C8608B288AC63F0000F03FDB
:103040000000F83F61436F63A787D23F71A37909FE
:103050004F930A400000E03F1655B5BBB16B0240EC
:10306000EF39FAFE422EE63F00002C4000002440DB
:1030700000001840FF0300002D431CEBE2361A3F0E
:1030800080842E41F0B54E46DE4657464546E0B5B3
:1030900097B09946209E219F229B83469846079190
:1030A0000C923B0032003000390001F094FA002805
:1030B00000D0A9E1012230003900CA4B524201F090
:1030C0006FFA002800D0E1E0012230003900C64B41
:1030D000524201F07BFA002800D0B7E00022300015
:1030E0003900C24B01F072FA002800D099E00022AA
:1030F00030003900BE4B01F053FA002800D090E0B8
:10310000002200233000390001F04AFA002800D0E4
:10311000B1E000230D93249B5B0501D40623984660
:1031200008AB9C461722002430234146624404E049
:10313000013413550139202C01D00929F8D88846CB
:103140003000390001F072FA4346DA00A94B05005D
:103150009B181A685B680892099301F04FFA020005
:103160000B003000390001F0A8F9089A099B01F022
:10317000D4F90A900B9101F07DFA824601F03AFAF7
:1031800002000B000A980B9901F097F900229A4B64
:103190000A900B9101F01AFA002800D1C0E0012337
:1031A0009C46E244504601F025FA02000B000898C4
:1031B000099901F0FBF9002802D000239A46013555
:1031C0004346002B6AD008AB17269C4608956644F8
:1031D000554614E001235B4243440A2128009A46E5
:1031E00000F028FF013430313719397028000A21E6
:1031F00000F020FF092D00D8D0E0D0460500202C9B
:10320000E8D10EAB98460323249A1340012B00D13A
:1032100096E02023249A01930392239A4346029234
:103220001EE0249B58460493239B0096019703932A
:1032300043460C9A029307994B46FFF7FDFC17B0E3
:10324000F0BCBB46B246A946A046F0BD249B5B0736
:103250000ED40322694B2499019203912399029180
:10326000009358464B460C9A0799FFF7A1FBE6E7F7
:103270000422634BEFE73B0032000020002101F005
:103280001CF9012306000F000D9344E7249B0393D0
:10329000239B0293042301935A4BE1E7280001F09A
:1032A000ADF902000B003000390001F006F9524B75
:1032B000002206000F0001F073F90EAB98460028BB
:1032C0000AD10022300039004B4B01F07FF9002871
:1032D00002D1EB0700D50135202C94D008AA9446E2
:1032E0001723280063440A2101341E1900F07AFED6
:1032F0003031280031700A2100F074FE051EEBD138
:103300000323249A1340012B1BD0202C00D180E7EB
:103310000D9B002B35D02D224146631C0A5579E7C1
:1033200000220A980B99344B01F03AF9002800D09A
:1033300046E75346002B51D101239C46E2443FE728
:103340002024239B002BE0D00D9B002B03D1249A3B
:103350000C33134202D0239B013B2393239BA342B4
:10336000D3D908AB9C46172230236244202C00D1CD
:103370004FE72399013413558C42C6D0202CF8D145
:1033800047E7249B5B0724D4249A2300120700D428
:1033900040E72022414601330A553BE75746089D46
:1033A000202C00D12DE7220030214046002F09D0EB
:1033B0000132B154202A00D123E7D3431B191B1833
:1033C000002BF5D10EAB98462E234146541C8B544E
:1033D00082E72B224146631C0A551BE7DB0700D41A
:1033E000EEE6A9E7FFFFEFFFFFFFEF7F65CDCD41E1
:1033F00065CDCDC1708C00100000E03F788A0010D0
:103400007C8A0010888A0010249B0393239B0293DC
:1034100003230193004B23E7848A0010F0B5DE46B6
:103420004E4657464546E0B59FB01C00289B914646
:103430000993C94AC94B8B4608901A60002900D1EC
:1034400018E2002320789A46002800D11AE22600CC
:103450001D005C460AE02A006F1C4B46089D2100B7
:10346000A8473D0001363078002870D02528F2D1D9
:1034700010239B46083B9A46043B9846023B00219A
:103480009C46721C107816000300203BDBB2102B08
:1034900003D8B34F9B00FB589F460300303B092BDA
:1034A00032D900230A932A2868D0002398462E2870
:1034B0003ED00300683BDBB2122B1CD8A94A9B000C
:1034C000D3589F46012301321943DBE7634601329B
:1034D0001943D7E7434601321943D3E75B4601322C
:1034E0001943CFE7534601321943CBE780235B00F2
:1034F0007078194301360300253BDBB2532BAAD861
:10350000994A9B00D3589F4600270300B800C01972
:1035100001364000C018337830381A00303A0700BE
:10352000092AF3D90A901800002398462E28C0D102
:1035300080237078DB0019430300303B721C092B99
:1035400000D8A1E12A2800D1B2E11600B1E7A346D4
:10355000AA462C00D14503D801235B424B449A462E
:103560004B46524659460020089DA84720001FB0F0
:10357000F0BCBB46B246A946A046F0BD099B40CB75
:103580000A96002E03DB50780993561C8DE72838E5
:10359000014370420A9009935078561C85E77828B9
:1035A00000D1DFE1582800D14CE26F2800D14FE371
:1035B000622801D100F030FC10230A009A430B92DC
:1035C000692801D000F0A9FC0A230C934B0500D513
:1035D000D0E10B9A802311009B0019408B461A42C0
:1035E00000D0A1E2802311005B0019408A461A42F4
:1035F00000D0B6E313005B0600D5EDE21300099995
:103600001B0601D400F076FC08C91BB2D8171A18A3
:10361000424092B209919346DA0F1292002B09D1DF
:10362000802310220B99DB000B4091430B91002B60
:1036300000D0E4E20B9A6123920600D541230EA943
:103640001F228C46DBB262440A3B5F461395A346B9
:1036500055460C9CB2460D9316000AE03033DBB29F
:1036600001357355A74200D2EDE2202D00D1EAE2E8
:1036700007002100380000F0DDFCCBB20929EDD9AC
:103680000D9A94466344DBB2EAE780239B0070788E
:10369000194301362FE77078682800D1CDE18023E7
:1036A0000136194327E770786C2800D1BFE18023E9
:1036B0005B00194301361EE7462800D19BE1072233
:1036C000099B0491073393430A9A190003924246D7
:1036D00002920CC908980092019309912A004B4666
:1036E0002100FFF7CFFC01360500BCE62A006F1C65
:1036F0004B46089D21002520A84701363D00B2E633
:103700008B0700D4ADE1099B2A009A466B1C9846B2
:10371000534601CB21009A46089F4B46C0B2B8479A
:103720000A9B9C466544012B00D886E2089B4746CD
:10373000B04626004C4699463A0023000137310036
:103740002020C847AF42F7D1A14653463400464631
:103750000993013687E6C0461D3400105438002016
:10376000908A0010D48A0010208B0010099B04CB93
:103770009B4643460992002B00D1C6E013789C4635
:10378000002B00D1BDE34346013B099A0133D01819
:103790000A9F130001E0834203D05A780133002AC4
:1037A000F9D1099A0A979B1A0B9380230A00DB0030
:1037B0001A400C92194204D00B9B434501D9434651
:1037C0000B9302231A000A400D920B4200D187E1AD
:1037D0006046002800D168E10C9B002B00D10DE170
:1037E000A844C246099B57465B1B9846089BB246B5
:1037F0002A0026004C46994609E023003100551C5A
:10380000C8474346585D002800D126E12A00974268
:10381000F3D1A1463D00340056460D9B002B00D04D
:1038200043E15B46013609931DE6099B1A0008CA6D
:103830009246002B48D0212211438B460EA8844685
:103840001F216144099500220F27A4460D0002E0C4
:10385000202A0CD00B003C001C4020003730092CE3
:1038600000D807380132A85419090F2BF0D8644644
:10387000099D32E0DC4B2078089300239A4600280B
:1038800000D0E4E5002465E6434606000A9F980060
:10389000C01801324000801916780300300030381B
:1038A000303B0928F3D93000984616000A9700E605
:1038B000099B023604CB9046D2434046D2171040B3
:1038C000804609933078F4E51022080090431132C5
:1038D0001043834600224905B0D55B460693082372
:1038E000059343460493102303930023029316ABDE
:1038F000019200932A004B4621000898FFF7A6F892
:103900005346050001360993ADE513789C46002B1C
:1039100000D1F7E202235B4237E7202302009A43FB
:10392000472A04D180231B011943022398434528C9
:1039300001D1202319430722099B049107339343A4
:103940000A9A19000392424602920CC90898009202
:10395000019309912A004B462100FFF76DF90136CA
:10396000050080E510230C930C230A009A430B9268
:103970004B0503D501230B9A9A430B92692800D17A
:1039800027E6642800D124E60B9A802311009B00CF
:1039900019408B461A4200D066E1802311005B007B
:1039A00019408A461A4200D039E213005B0600D55E
:1039B0003CE113001B0600D4A6E2099B04CB1204D1
:1039C000120C934609935B46002B00D09AE10B9AA8
:1039D0001033110099430B91520500D492E100235A
:1039E0009A460B9B06930A9B0593434604930C9BB4
:1039F000039300230CE12023194360E6099B0A9AF4
:103A00005B1B98464B4691461F00B2462600089C19
:103A10002A003B003100A04743460135585D00288D
:103A2000F6D14A463400B94656460A92F5E6C02316
:103A30009B00B078194302365DE5C023B078194386
:103A4000023658E50C230A009A4314331A43103BFC
:103A50000B920C934B058DD496E7A1463400564645
:103A6000DBE60A9A012A00D853E26B1E9F18089BD6
:103A7000B04626004C4699462A0023000135310005
:103A80002020C847BD42F7D1A14634004646099BD5
:103A90003A0001CB210098467D1C4B46089FC0B2DE
:103AA000B847434601360993DDE40B9B0A9AA846C2
:103AB0009A4200D8B5E694466544ED1A089B4746FD
:103AC000B04626004C4699463A00230001373100A3
:103AD0002020C847AF42F7D1A14634004646A0E6B1
:103AE0000B9A0A99531C914200D814E24B199B1A65
:103AF0001F00089BB24626004C4699462A00230028
:103B0000013531002020C847BD42F7D10A9BA146AC
:103B100001330B93099B34001B7856469C46604644
:103B2000002800D058E67CE60722099B0733934320
:103B3000013294469C4462465F6809921A68FB17FA
:103B40001093119310981199030053400E930B009A
:103B50007B400F9394460E9A0F9B121A8B410E9244
:103B60000F93FB0F6246129300233A439B463DD0CE
:103B70000B9A6123920600D541230022DBB20EA9E5
:103B80000A3B8C4692460D9343461F32624413957E
:103B9000159655460E9E0F9FA24690460C9C149378
:103BA0000CE03032D2B2434601355A55BB4500D104
:103BB0008AE1202D00D18AE106000F0022000023B7
:103BC0003000390000F078FAD2B2092AE9D90D9B09
:103BD0009C466244D2B2E6E7FF23099904C9134028
:103BE0001A00099117E5C046AD2900100B9A103351
:103BF000110099430B915205BAD500239A460B9BAD
:103C000006930A9B0593434604930C9B0393129BD4
:103C100002935346019316AB2A00009321004B46B2
:103C20000898FEF713FF013605001CE4FF22099BEC
:103C300002CB11408B460993C5E65346454609938E
:103C40000136FFF710FC56465C46AA46139DD6E7A0
:103C500008230C930B910B99642800D084E60B9BEE
:103C60005B0500D586E6B4E40722099B073393433E
:103C7000013294469C44624609921A685B681000BF
:103C80009B4613005A46134307D10B9A1033110079
:103C900099430B91520500D5A1E60B9A6123920638
:103CA00000D541230022DBB20EA90A3B8C46924686
:103CB0000D9343461F3262445F461295A346554614
:103CC0000400B24690460C9E13930DE03032D2B2FF
:103CD000434601355A550023BB4200D100E1202D57
:103CE00000D100E104000F00320000232000390061
:103CF00000F0E2F9D2B2092AE8D90D9B9C46624451
:103D0000D2B2E5E70B9A6123920600D54123DBB2DC
:103D10000EA90A3B1F228C460D93230062445C4689
:103D20001295170055469B46B2460C9E08E030336C
:103D3000DBB201357B55B4420ED3202D0CD00400EC
:103D40003100200000F076F9CBB20929EFD90D9AA5
:103D500094466344DBB2ECE756465C46AA46129DA5
:103D60003FE6099B1A0008CAD91713925A184A400D
:103D70009246DA0F1292002B08D1802310220B9961
:103D8000DB000B4091430B91002B2BD10B9A61234D
:103D9000920600D541230EAA1F279446DBB20A3BA8
:103DA0000D9567445D460993A3465446B2460C9E62
:103DB00008E03033DBB201357B55B4420ED3202D01
:103DC0000CD004003100200000F034F9CBB20929F6
:103DD000EFD9099A94466344DBB2ECE756465C4659
:103DE000AB460D9D0B9B2A0006930A9B2100059371
:103DF000434604930C9B08980393129B013602934D
:103E00005B46019316AB00934B46FEF71FFE139BD8
:103E100005000993FFF727FB02230C931AE7099B80
:103E200004CB92461293002A08D1802310220B99CA
:103E3000DB000B4091430B91002B2BD10B9A61239C
:103E4000920600D541230EAA1F279446DBB20A3BF7
:103E50000D9567445D460993A3465446B2460C9EB1
:103E600008E03033DBB201357B55B4420ED3202D50
:103E70000CD004003100200000F0DCF8CBB209299E
:103E8000EFD9099A94466344DBB2ECE756465C46A8
:103E9000AB460D9D0B9B2A0006930A9B21000593C0
:103EA000434604930C9B08980393002302935B46BC
:103EB000019316AB00934B46FEF7C8FD129B05001D
:103EC00009930136FFF7CFFAB44200D871E6149B8C
:103ED00054460E960F97AA469846159E139D8EE659
:103EE000A64200D8FBE6139B56469846AA465C4677
:103EF000129D76E508C9D8171A1842400991FFF7B4
:103F00008AFB00230B9350E4099B04CB934609934F
:103F100059E52F00BBE50B9301E6063B0C939AE6AF
:103F200000B585B00391012102900093034813006E
:103F30004A4202A9FFF772FA05B000BD292C001011
:103F400010B5094A0300146884B0002C08D001227F
:103F500000910648524203A9A047012004B010BDB9
:103F600001F0B8F80020F9E754380020192C0010AF
:103F700001480421014B1847F0130020A13F001015
:103F8000142310B50100188804331B88984710BD0E
:103F9000162310B50100188802331B88984710BDFE
:103FA000F8B54746CE4680B50F1E19D01423994662
:103FB000043304000025012698464B4618884346E2
:103FC00021681B88984701C4431E9841013540422F
:103FD0000640AF42F1D13000C0BCB946B046F8BD92
:103FE0000126F8E7124A936F9B0815D29066D166B6
:103FF000002905D0FFE7FFE7FFE7516F106F70471B
:1040000004B580210906C2175140002800D0C843DA
:1040100004F042FB002104BDF0B5146E556E576FDD
:10402000166FFFF7E3FF1466556657671667F0BD16
:10403000000000D0114A936F9B0813D2106651669E
:10404000002905D0FFE7FFE7FFE7516F106F7047CA
:1040500004B5002801D00020C04304F01DFB00215E
:1040600004BDC046F0B5146E556E576F166FFFF75E
:10407000E5FF1466556657671667F0BD000000D06F
:1040800094464E4A926F9208624601D230E0C04692
:10409000F0B54A4EB56F6D08FCD3346E756E776F10
:1040A000366F00F025F89446444A14665566576703
:1040B00016676246F0BDC0469446404A926F920829
:1040C000624601D258E0C046F0B53C4EB56F6D086F
:1040D000FCD3346E756E776F366F00F04DF89446F2
:1040E000364A14665566576716676246F0BDC04685
:1040F000002B24DB11D000293EDA00B5C943404231
:1041000000D1013100F038F8C943404200D10131FB
:10411000DB43524200D1013300BD002AEBD100281D
:1041200001D1002905D00020C90FC90701D1C04322
:10413000410800B504F0A8FA0022002300BD00B534
:1041400000290ADBDB43524200D1013300F014F8AE
:10415000C943404200D1013100BDC943404200D1B2
:104160000131DB43524200D1013300F005F8DB435B
:10417000524200D1013300BD002923D1002B18D1B8
:10418000002A0CD0BC460D4F38667A660021002309
:10419000FFE7FFE7FFE77A6F386F67467047002851
:1041A00001D00748010000B504F06EFA0022002398
:1041B00000BD02000B00002000217047000000D06D
:1041C000FFFFFFFF002B00D0BFE0130C28D1002A17
:1041D000E7D080B4114F39667A66FFE7FFE730B465
:1041E000040C7B6F396F1B0423433B667A66FFE741
:1041F000FFE7FFE7C04684B27B6F3D6F1B0423439C
:104200003B667A66FFE7FFE7C04600232C042D0CCF
:104210007A6F386F00196941B0BC7047000000D058
:10422000F0B594460025140E01D112020835140F82
:1042300001D112010435940F01D192000235D40F3F
:1042400001D152000135D40B0134254F7C66254C39
:104250003C660E0C93B2FFE7FFE7FFE73C6F664357
:10426000360C7703BE467343DF0B5B04C01AB941BB
:10427000130C7343DB18C91ACE086643360CB644D8
:1042800093B273431F0F1B01C01AB941130C734340
:104290001F0B1B05C01AB941860D8F023E436643B2
:1042A000360C092D24DB520A7243801A7703460A22
:1042B0006643360C16235B1BDE40DF40BF196446A5
:1042C0006643821B7046043506330100D940A8407E
:1042D000C01900D30131A24206D20023F0BD000074
:1042E000000000D0FFFFFFFF121B0130F3D3F1E706
:1042F00009277F1BFE406446A2B27243801A00D297
:104300000139220C7243130C1204821A99410B00DA
:104310007046043513370100F940A840801900D3D6
:104320000131002B02D1A2420AD2F0BD013000D3EC
:104330000131121BFAD2013BF8D1A24200D2F0BDEA
:10434000013000D30131121BF7E7F0B51C0C00D08F
:1043500080E00CB400251C0A04D11B02160E334366
:10436000120208351C0B04D11B01160F3343120136
:1043700004359C0B04D19B00960F33439200023509
:10438000DC0B02D192185B4101351C009718644187
:104390000134464F7C66464C3C660E0CFFE7FFE757
:1043A000FFE7C0463C6F6643360C7703BE4697B2C4
:1043B0007743C01B00D20139C01B00D201399FB224
:1043C0007743C91BC91B170C77437E04FF0B801B67
:1043D000B941CE086643360C0C2D33DBB644120BC4
:1043E0001F053A431B0B97B27743C01B00D201391C
:1043F0009FB27743C91B170C77433E043F0C801BC9
:10440000B941860D8F023E43664329277F1BFE403C
:104410000C3D7746AF40BF1930BCA2B2ABB272437D
:104420007343801A9941220C7243130C1204801AB0
:10443000994102000B000137001BA941F9D2781EF7
:104440000021F0BD0C277F1BFE4077467F0BAF405D
:10445000FF19E0E700245D1C07D0144F7D66396624
:10446000FFE7FFE7FFE7FFE73C6F95B29EB26543CA
:104470006643401BB141150C1E0C65436643360470
:104480002F0C3E432D04401BB141994204D202003F
:104490000B0020000021F0BD01D19042F7D3801A1B
:1044A000994101349942F2D3F6E70000000000D0B0
:1044B000FFFFFFFF48404140484018B41B4B5B687A
:1044C000FC46019308BD04DF5347001018B4174B96
:1044D0001B68FC46019308BD00DF5D470010944651
:1044E000134A926F920809D2624618B40F4BDB68E8
:1044F000FC46019308BD0CDF154A00100C4AF0B5CC
:10450000146E556E576F166F6246FFF7EEFF084A3E
:104510001466556657671667F0BD18B4034B9B6861
:10452000FC46019308BD08DFB94800106015002063
:10453000000000D0FFB550404240504059404B4031
:10454000594000E0FFB5154F4C00640D03D0BC424C
:1045500004D10C0314D80020090D09055C00640D7A
:1045600003D0BC4204D11C030AD800221B0D1B053A
:1045700001264B4009D44B4003D58B4200D18242E7
:10458000FFBD9942FCD19042FFBD0B43DB180343B2
:104590001343F5D0C9434918FFBD0000FF070000D1
:1045A00000B5FFF7CFFF804100BDC04600B5FFF763
:1045B000C9FF01D9002000BD012000BD00B5FFF7F3
:1045C000B9FF01D9002000BD012000BD00B5FFF7F3
:1045D000B1FF804100BD012040054A00121804D8F7
:1045E0005A00121801D8002070470120704700209F
:1045F000704700000021002805D17047C1174840CE
:10460000401AFAD0C90713B5064B1B6898470CBC73
:10461000441CA2401005120B0349091B090519434C
:10462000114310BD144200201F04000010B54C00BF
:10463000620D8023D218DB00D21A5B057E2A10DDC2
:104640009E3A13DACC170903490819435242D14064
:10465000640001341532202A05DAD0400843604353
:1046600010BD002010BD0846604310BDC80FC01823
:10467000013810BD18B4044B5B6AFC46019308BDB9
:1046800024DFC54B0010000060150020132370B517
:104690001D78012D15D010DD1C48FFF779FC1C4C4E
:1046A00001008022200000F0ADFB022D06D0194849
:1046B000FFF766FC184B186070BD154C174BA364D0
:1046C000F5E7164B124C23606360A360E36023613F
:1046D0006361A361E36123626362A362E3622363B4
:1046E0006363A363E36323646364A364E364236594
:1046F0006365A365E36523666366A366E366236774
:104700006367A367E367A364D1E7C046534400002F
:10471000601500204C330000144200202147001097
:1047200007B5604601880A0A0230DF2AFAD1C9B209
:10473000820804D3028840880004104300E0006827
:10474000014A5050039007BD601500200FB403BC10
:104750000CBCF0B50124E407634000E0F0B50C0D9B
:10476000CF0F661E3605891B640503D3C94340423B
:1047700000D30131640D03D0661CF60A07D0E41B98
:1047800000207F00791C89078912803C24031D0DBD
:10479000DF0F6E1E36059B1B6D0503D3DB435242B4
:1047A00000D301336D0D03D06E1CF60A07D0ED1B4C
:1047B00000227F007B1C9B079B12803D2D032F1B3B
:1047C000661B58D4A446202E46DA20371400BC407D
:1047D0001D00BD40F24033412A4380185941CB0FA0
:1047E00005D0C943C0430022644250415141624652
:1047F0004D0D28D10D0D07D100281FD0241940419F
:104800004941013A0D0DF9D0640006D3013000D3BF
:104810000131002C01D140084000013A0BD4941C16
:10482000E40A04D112051144DB071944F0BDD9078D
:10483000204B194300E0D9070020F0BD0029DDD14D
:10484000002CDBD1F0BD0132C6074008CD0728435C
:104850004908002EE1D0D9E73C2E29DA203E403726
:104860001400BC4000D00124F24014431A00BB40A5
:104870001C43D317ACE7AC46202F08DA20360400DF
:10488000B4400D00B540F84039412843A5E73C2F1E
:104890000CDA203F40360400B44000D00124F84038
:1048A00004430800B1400C43C117EAE710001900A7
:1048B000002494E70000F07FF0B50C0D661E36056D
:1048C000891BE60A6405640D02D0651CED0A04D05C
:1048D000002001210905803C2403A4461C0D671E0D
:1048E0003F05DB1BE70A6405640D02D0651CED0A79
:1048F00004D0002201231B05803C2403774064443C
:1049000097B484B296B27443070C7E43150C6F4380
:1049100080B26843361802D3012000043F183004E7
:10492000350C00197D41844688B29AB250430C0C74
:1049300062431F0C7C438EB27E43921902D3012640
:104940003604A4191604170C3618674101BC81B24D
:104950009AB25143040C62431B0C5C4380B258432F
:10496000121802D30120000424181004130C40185C
:1049700063412D185E410020474106BC88B293B2C6
:1049800058430C0C6343120C544389B251435B18D7
:1049900002D301210904641819041A0C0918624190
:1049A0006D1856410020474118BCF902720D1143A1
:1049B000F0026A0D1043ED020A0D03D16D1940415A
:1049C0004941013B124E9B1B7600B3420ED26D0053
:1049D00007D30130002671416646354301D14008B6
:1049E00040001B05C918E4072144F0BD0BDA013370
:1049F00006D1013004D101314F0D01D04908F2E751
:104A0000E1070020F0BD013631050020EBE7000092
:104A1000FF030000F0B51C0D671E3F05DB1BE70A16
:104A20006405640D02D0661CF60A04D0002201233E
:104A30001B05803C2403D0252D060026F6432E6658
:104A40001E096E66CE0FF619B44649004F0D02D00E
:104A50007E1CF60A03D000200021403F3F033E1B8E
:104A6000B600B444013F7F05C91B49082E6F0136CB
:104A700076089C02950D25437543ED137543AD13E0
:104A800001356D10F603761B0CB4CC02450D2C439A
:104A9000A2B2B3B25A43270C7B43350C6F43A4B286
:104AA0006C431B1902D3012424043F191C041D0C60
:104AB000A4187D4124196D41009A91B2ACB26143B2
:104AC000170C7C432B0C5F4392B25A43A41802D3B9
:104AD00001221204BF182204230C52187B41019CAE
:104AE0006C431B19520ED9010A434401A01A81B22A
:104AF000B2B2514303145A43360C734387B277431F
:104B0000D617D21900277E4136049B191704160CBC
:104B10007F185E417316ED18F3010026803375414E
:104B2000A90F06D16400690AE8055B0A184309D297
:104B30002FE00422944480337541A90AA8059B0AFA
:104B4000184326D3404149412404009A019B0D009B
:104B50005543641B4343E41A95B286B27543170C60
:104B60007E43030C5F4392B25A43B61802D301222C
:104B70001204BF183204330C52197B4152429C413B
:104B8000002C02D40022013051414008CA071043D2
:104B9000490802B06246D7079210084BD218084B5A
:104BA0009A4203D212058918C919F0BD0020002AC3
:104BB00001DC3900F0BD01331905F5E7FD03000004
:104BC000FE070000002200B5203200F004F80800C3
:104BD00000BD000000220B150AD410B5944600F069
:104BE00031F81414013400DA0021CB17144C20479B
:104BF0000020002170476244343A0CD40C2A07DAB2
:104C000004009140904052422032D440214310BDD4
:104C1000D843D94310BD203207D40C4694405242A9
:104C200020321141D040204310BD0800C917203266
:104C300003D452422032104110BD1800190010BD9B
:104C4000F74B00100A0DCC0F531E1B05C91A520555
:104C500003D3C943404200D30131520D03D0531C4A
:104C6000DB0A07D0121B00206400611C890789122F
:104C7000803A1203014BD21A70470000FF03000074
:104C800051434343C9188C46110C83B24B4310B4B3
:104C9000040C614392B280B2504362431C041B0C6B
:104CA000001910BC59411304120CC0185141614441
:104CB000704700004840414048400E4B5B68184731
:104CC0000C4B1B6818470C4A936F9B0802D2094B88
:104CD000DB681847F0B5146E556E576F166FFFF707
:104CE000F6FF054A1466556657671667F0BD014B17
:104CF0009B68184760160020000000D0491A002861
:104D000008D1084670470000C10FC90700D54042CE
:104D1000002817D0F44603B40B4B1B68984706BC19
:104D200081409E384042803107D20B0607D04900AF
:104D3000490AC0051043084360470130F8E7490AB3
:104D40008902F5E77047000014420020014B5B6ABE
:104D50001847000060160020132310B512481C7875
:104D6000FFF716F90100012C0AD003DD80220F485D
:104D700000F048F80E48FFF703F90E4B186010BD1D
:104D80000A4C5422200000F03DF80B4B6365A365EC
:104D9000E36523666366A366E36623676367A367C9
:104DA000E3672362E361E5E75346000060160020F5
:104DB0004C33000014420020BD4D001007B5604682
:104DC00001880A0A0230DF2AFAD1C9B2820804D364
:104DD000028840880004104300E00068014A5050F7
:104DE000039007BD6016002001480421014B1847BD
:104DF00000140020A13F0010014B1B681847000061
:104E000000140020014B5B681847000000140020CC
:104E1000030010B5080011001B68984710BDC0467C
:104E2000F0B546464F46D646C0B5437C80460E0098
:104E30001700002B46D0002A3FDD4B1E9946244B1D
:104E40000125002400209A460DE04B461B5D0D3BDA
:104E50005A425341325DDBB20A2A0BD02B00013497
:104E600001359F421ADD002CEFD14346325D1B7C99
:104E70000A2AF3D1002BF1D1A04204DA4346211AC9
:104E80001B6830189847434650461B6802219847D4
:104E9000013428002B0001359F42E4DC874204DD09
:104EA0004346391A1B6830189847F619013E337883
:104EB0000D3B5A42534142461374E0BCBA46B146D8
:104EC000A846F0BD0368110030009847F5E7C046DA
:104ED000248D0010F0B5C6460C000968060000B528
:104EE000802906D04B1C23606418267180BCB8460C
:104EF000F0BD0F4B1D68002D16D0231D98460D4F99
:104F000002E0ED68002D0FD02B68002BF9D03B6834
:104F1000002B01D0AB42F4D1280041462268FFF7B4
:104F20007FFFED68002DEFD101230021DBE7C046B4
:104F3000A8350020EC370020F0B557464E464546D0
:104F4000DE461C00D023E0B51B061F68344B83B03F
:104F500006000D00180001A991469A4603F0A4FB33
:104F60008046002808D1019B7FB29F4204D0504662
:104F700003F0AAFB012398466B1C03D1300003F019
:104F80004BFB0500002C27D1264F274B1C68002C1B
:104F900018D04B46002B21D1244B994602E0E468FF
:104FA000002C0FD02368002BF9D04B461B68002B38
:104FB00001D0A342F3D120002A003100B847E468B1
:104FC000002CEFD14346002B25D103B0F0BCBB46EB
:104FD000B246A946A046F0BD154FD6E7134B9946F9
:104FE0000A239B4602E0E468002CEBD02368002BE8
:104FF000F9D04B461B68002B01D0A342F3D12A0005
:1050000031002000B8475A466B4620001A7101A9AA
:105010000122B847E7E7504603F02EFBD5E7C0462C
:1050200044140020214E0010A8350020EC37002049
:10503000114E0010F0B5CE46474680B583B06B46A2
:10504000DE1CD02330701B061C681F4B804601A954
:105050001800994603F028FB071E20D01B4B1C6844
:10506000002C28D01A4D02E0E468002C0FD02368F1
:10507000002BF9D02B68002B01D0A342F4D12000E3
:1050800001223100FFF7CCFEE468002CEFD1002FA5
:1050900011D1404603B0C0BCB946B046F0BD019B3B
:1050A00064B29C420BD0484603F00EFB074B01272D
:1050B0001C68002CD6D1484603F0DEFAE9E7034B22
:1050C0001C68002CCED1E4E744140020A835002051
:1050D000EC37002070B5040003F09EFA00230100B5
:1050E000050001222000FFF727FF084B1C68002C59
:1050F00006D06368002B05D09847E468002CF8D1EF
:10510000280070BDE468002CF3D1F9E7A835002031
:10511000F0B54746CE46D02380B51B061D682E4B02
:10512000A5B007000C00180003A9984603F0BCFACC
:10513000061E07D1039B6DB29D4203D0404603F08B
:10514000C3FA01368422002103A8FFF755FE23008D
:105150003A00224803A9FEF7E3FE039B0700002B59
:1051600014D11F4B1C68002C06D06368002B0BD099
:105170009847E468002CF8D1002E27D1380025B0DC
:10518000C0BCB946B046F0BDE468ECE7144B1D68FE
:105190009946002D1ED0134C02E0ED68002D11D071
:1051A0002B68002BF9D02368002B01D0AB42F4D13F
:1051B000039B28001A0004A90193FFF731FEED6854
:1051C000002DEDD14B4603951C68CCE7404603F01B
:1051D00053FAD3E70395CFE744140020D54E0010CF
:1051E000A8350020EC3700200FB400B583B004A927
:1051F00001C90191FFF78CFF03B008BC04B0184748
:10520000F0B5D6464F4646468846C0B5052406004A
:10521000FBF786FF43461F791C57284B8146F01841
:1052200043425841264B9A4683009C465346624669
:10523000985801222023BA40DB1B013A002C32DBB4
:105240009C422DDCA2401500104229D1002F1AD01B
:1052500043465A7819781202114342469B78D27815
:105260001B040B4312061A4390460022414653008A
:10527000C95A4B0B00D10919131912339B00013283
:1052800099519742F2D85346624605439D5048468D
:10529000FBF752FF2000E0BCBA46B146A846F0BD7D
:1052A0000848FCF76DFF002B02DAF9E7013BF7D362
:1052B00015009D401C000542F8D1C7E70000D0AFA3
:1052C000A42B0020288D0010F0B54E464546DE4642
:1052D00057468A464900E0B50D0080465544ED002A
:1052E00045448946290009AC2678DC31741EA64164
:1052F00008687442844614481F26834626405E444C
:10530000052B0CD9A0201F274005D8355401044394
:105310000532053B0C603A402E60052BF6D8494615
:105320005144C900414452019B0613430A0008003E
:10533000DC3213606346D83006601360F0BCBB46B5
:10534000B246A946A046F0BD80E00000F0B50125B8
:105350008D400468AC434D0004606C18E4000419EF
:105360002600C836002B2AD01F68DC3437605F68FF
:1053700077609F68DB68B76023606D18EB001D00E5
:105380008024D035451964012C4380252D062560E5
:105390002560114C0D1D8C40846001242700AF4016
:1053A0003D0008318C401F2106680A4035430560E6
:1053B00005682C430460C018D8300260F0BD802717
:1053C0007F023760F8277F027760C027DC343F0315
:1053D000B7602360D1E7C0460101010103BDC046AB
:1053E00010B50400FDF75CFAA04710BDF0B504004D
:1053F00087B00F200E001700FDF7E0F80021050030
:105400000F20FDF7C9F80023002200920193012329
:105410000293D02304960594002600240121022043
:1054200003971B06002C14D01A6D1042FCD05C654B
:1054300040BF1A6D114203D120BF1A6D1142FBD03B
:105440009A6DA2420AD000266C46B200A458E9E741
:105450009A6D1A6D1142FBD140BFE5E70136052E6A
:10546000F2D929000F20FDF797F807B0F0BDC0462C
:105470000B4B0C4A10B5934201D201235B42190039
:10548000094A985004329B50084A094B0948CA50AF
:10549000094B9A68044B9C466144FFF7A7FF10BD77
:1054A0000008042000000420F4070000E15300106D
:1054B000FC070000DD53001000ED00E0F0B598237C
:1054C0004546DE4657464E46954AE0B5D558973B89
:1054D0001C008DB02C402B4200D19CE0136D0121AB
:1054E0009B0500209B0F00D0E8E001F003FCC022E8
:1054F0008C4B92001A658C4A41239346492292466E
:105500008A4A8B4F9146092290468A4A8A4E0392D4
:1055100051220492894A0792894A05925922069299
:10552000884A0A9219220992083A0892EA0600D497
:1055300096E001247A4B9E6D344200D0C3E00123F3
:105540009846784B02249946AA467F4F03E00234DE
:105550002437202C22D0002E00D1B2E04346A340B5
:105560001E42F4D04A46380093659E4300F0CAFCC0
:105570000028ECD0BB78BA8A38009346FD7F0B93A5
:1055800000F026FC42460023009228005A460B9960
:10559000023401F063FB2437202CDCD15546002E69
:1055A00000D0B9E0059A039F9346069A049B924661
:1055B0000A9A079E9146099A089C90462A0719D58F
:1055C0008022584BD2021A65554BDB6C9B0751D594
:1055D0005E488678878AC47F00F0FAFB01233A0090
:1055E000310020000093002301F038FB5F46534652
:1055F0004E4644466A0543D46A0659D4AB0600D5E4
:1056000083E0AC4200D07BE00DB0F0BCBB46B246BC
:10561000A946A046F0BD8922D20093464822924670
:105620008122D2009146082290468A22D20003921B
:10563000502204928222D2000792483205925822C8
:1056400006928322D2000A92182288278026099285
:10565000083A4023FF00F6000892EA0600D568E702
:105660002A07C7D580222F4BD2021A652C4BDB6C40
:105670009B07ADD45F4653464E4644466A05BBD5AC
:105680008022284B314892051A658378C47F98465A
:10569000838A994600F09CFB0123200000934A4630
:1056A0000133414601F0DAFA34003B006A06A5D521
:1056B00080211C4A09051C0011659FE701F0F4FADE
:1056C00015E755466EE7214FA6437B6838001B68F7
:1056D000144B9C6500F016FC002800D12FE7FB7FDF
:1056E00038009846BB789946BB8A9A4600F070FB12
:1056F0000023524649464046009401F0AFFA1EE7A7
:10570000210013486940FCF73BFD8022054B12063F
:1057100010481A65FCF734FD31000F48FCF730FDE6
:10572000000011500030115049040000090400002D
:1057300041040000510400000104000011040000B5
:105740005904000019040000D0350020AC350020B9
:10575000688D0010548D00103C8D001010B500F0C5
:1057600011FB0C230A4C0520A3670A49FCF73AFFFA
:105770009022002192000848FFF73EFB0323236498
:10578000064B074AE36490230120E25010BDC04657
:1057900000001150BD540010AC35002000860020E0
:1057A0007B0400007047C046044B186DC0239B006B
:1057B0001840431E9841C0B27047C04600001150C7
:1057C000064B10B5186D8005800F012802D0022805
:1057D00001D1002010BD0248FCF7D2FC000011509E
:1057E0007C8D00107047C04610B501210520FCF7E4
:1057F000D3FE10BDF8B54546DE4657464E46D37833
:1058000008009B0711009A0F90461300E0B5714CF9
:10581000032A59D0704A714FA260714ABB46E260B8
:10582000C0225200944667604D790E79A94607253B
:105830004F463D402D0235437F268A7889791640B0
:10584000A270D209627072427241E2704246A2773F
:1058500062469B061343A02212060127E077A58328
:105860001A43002926D001390B0413435A4613600A
:105870005C4B27701D6DAD05AD0F012D03D0022DC2
:1058800000D08CE000253604064301F045F9A8421B
:1058900002D08023DB041E4320235249E35C8C4664
:1058A0009A0062445660012201339A4013004E4A26
:1058B000536502E05B461A6027700120F0BCBB46CE
:1058C000B246A946A046F8BD2422A25C002A5AD0BE
:1058D0004822A25C002A65D06C22A25C002A63D018
:1058E0009022A25C002A61D0B422A25C002A5FD080
:1058F000D822A25C002A5DD0FC22A25C002A5BD0E8
:1059000090225200A25C002A58D0A2225200A25C2F
:10591000002A55D0B4225200A25C002A3DD0C622F3
:105920005200A25C002A4DD0D8225200A25C002A6C
:105930004AD0EA225200A25C002A47D0FC22520040
:10594000A25C002A44D087229200A25C0F27002A82
:105950001AD08F220F2778259200A25CED19AD0096
:105960006419224DD7007D19A560214D9201AC46E6
:10597000204D6744AC46204D62445540AC46BB4682
:105980006760E26050E70127FD00EE19B6007A1E5D
:10599000A619D2B220363270E0E70A27F4E717489A
:1059A000FCF7EEFB0227EFE70327EDE70427EBE721
:1059B0000527E9E70627E7E70727E5E70827E3E7FD
:1059C0000927E1E70B27DFE70C27DDE70D27DBE7FA
:1059D0000E27D9E7AC350020800010500001105090
:1059E000800110500000115000201150880010500C
:1059F0000800105000021050000010507C8D001064
:105A0000F0B5C64600B50C00190006AB15001A88A3
:105A10007F231F00A7482F40EE092B4200D198E0BA
:105A20005B3BC35C002B04D04323C35CA34200D187
:105A3000C7E04823C35C002B04D06723C35CA342A8
:105A400000D1C5E06C23C35C002B04D08B23C35C66
:105A5000A34200D1C3E09023C35C002B04D0AF234A
:105A6000C35CA34200D1C7E0B423C35C002B04D0C5
:105A7000D323C35CA34200D1C5E0D823C35C002B71
:105A800004D0F723C35CA34200D1C3E0FC23C35C72
:105A9000002B05D01C23FF33C35CA34200D1C0E020
:105AA00090235B00C35C002B05D04023FF33C35C15
:105AB000A34200D1BCE0A2235B00C35C002B05D055
:105AC0006423FF33C35CA34200D1B9E0B4235B007D
:105AD000C35C002B05D08823FF33C35CA34200D1F5
